:100000000C9434000C9451000C9451000C94510049
:100010000C9451000C947D000C9451000C945100F0
:100020000C9451000C9451000C9451000C9453000A
:100030000C9451000C9451000C9451000C945100FC
:100040000C9451000C9451000C9451000C945100EC
:100050000C9451000C9451000C9451000C945100DC
:100060000C9451000C94510011241FBECFEFD4E02A
:10007000DEBFCDBF11E0A0E0B1E0E6ECF2E002C0EF
:1000800005900D92A434B107D9F721E0A4E4B1E0C2
:1000900001C01D92AF34B207E1F70E94BF000C947B
:1000A00061010C9400001F920F920FB60F92112461
:1000B0002F933F934F938F939F93209108013091FB
:1000C00009014DE7429FC001439F900D1124909379
:1000D000890080938800109285001092840085B179
:1000E00090E2892785B99F918F914F913F912F91F0
:1000F0000F900FBE0F901F9018951F920F920FB682
:100100000F9211242F933F935F936F937F938F935D
:100110009F93AF93BF9381E090E090934E018093C3
:100120004D014A9912C080910801909109012091D6
:1001300008013091090167E070E00E944D01261B23
:10014000370B3093090120930801809108019091A9
:1001500009014A9730F484EF91E09093090180936C
:100160000801BF91AF919F918F917F916F915F91A6
:100170003F912F910F900FBE0F901F9018958BB14C
:10018000806E8BB985B18C6385B984B7A89584B727
:10019000877F84BF809160008861809360001092A7
:1001A000600080917C00806480937C008CE384B943
:1001B00080EE8AB985B78F7E85BF52985A9A109281
:1001C000C1001092C50080E18093C40082E080935A
:1001D000C00088E18093C10086E08093C20085E082
:1001E00090E022EB35E026BD35BDA89BFECFA89A56
:1001F00015BCA8950197B9F7809168008460809339
:10020000680080916D00846080936D008BB1806E7A
:100210008BB985B18C6385B9EAE0F1E022ED31E07C
:100220008191882349F09091C00095FFFCCF809385
:10023000C6002E173F07A1F778942091080130914E
:10024000090110928500109284004DE7429FC00181
:10025000439F900D11249093890080938800809192
:100260006F00826080936F0083E0809381008091B3
:100270004D0190914E01892BD1F3F8942FEF80E737
:1002800092E0215080409040E1F700C000001092C1
:100290004E0110924D017894EACFAA1BBB1B51E18D
:1002A00007C0AA1FBB1FA617B70710F0A61BB70BE6
:1002B000881F991F5A95A9F780959095BC01CD018B
:0602C0000895F894FFCF41
:1002C6000100000000800000F4010D0A204D6F6D52
:1002D600656E746172696C792073776974636820DE
:1002E60070696E3420746F20676E6420746F2069A5
:1002F6006E63726561736520666C617368207261F6
:04030600746500001A
:00000001FF
