:100000000C9434000C9449000C9449000C94490061
:100010000C9449000C9449000C9449000C9449003C
:100020000C9449000C9449000C9449000C9449002C
:100030000C9449000C9449000C9449000C9449001C
:100040000C9449000C9449000C9449000C9449000C
:100050000C9449000C9449000C9449000C944900FC
:100060000C9449000C94490011241FBECFEFD4E03A
:10007000DEBFCDBF11E0A0E0B1E0E2E4F3E002C0FA
:1000800005900D92AE30B107D9F70E944B000C9449
:100090009F010C940000CF93DF93CDB7DEB7659737
:1000A0000FB6F894DEBF0FBECDBF8DE0E0E0F1E00B
:1000B000DE01119601900D928A95E1F784B7A8951B
:1000C00084B7877F84BF80916000886180936000DF
:1000D0001092600080917C00806480937C008EEFA1
:1000E00091E00E949101082F80EF800F803E40F444
:1000F0008FEF91E00E949101081302C00093660007
:100100008FE384B98FE087B98CEF8AB95E9A289A19
:100110002B9A2D9A409A5F9A2A9A2C9A5B985D980E
:100120005C9829985A9843984298419885B78F7E51
:1001300085BF87B18F7C87B988B1806388B91092F9
:10014000C1001092C50080E18093C40082E08093DA
:10015000C00088E18093C10086E08093C2008AE0FD
:1001600090E022EB35E026BD35BDA89BFECFA89AD6
:1001700015BCA8950197B9F71E861F86188A198A9B
:100180001A8A1B8A1C8A1D8A90E080E061E070E078
:1001900001E084300CF4B7C0843009F471C08530BC
:1001A00009F470C02AEF280F243008F46DC08A309B
:1001B00009F46CC08B3009F46BC08C3009F46AC050
:1001C000E1E0F0E0EC0FFD1FE80FF11D87FDFA956F
:1001D000E0810E2E000CFF0BF0972EE030E02C0F8C
:1001E0003D1FE20FF31F40812FE9210FDB0102C009
:1001F000AA0FBB1F2A95E2F79D0191114DC0242B38
:100200002083A5E6B0E0FE013E967F0130E020E0CD
:100210005E9A289A2B9A2D9A409A5F9A2A9A2C9A3B
:100220005B985D985C9829985A98439842984198B1
:1002300022303105B1F123303105A9F121303105EA
:1002400071F1299A50E040E0F701D080ED2DDD0CEE
:10025000FF0B042E02C0F595E7950A94E2F7E0FF44
:1002600025C04730510510F5FA01E75CFE4F0C94AC
:10027000990155018501870189018B018D018F014C
:1002800016E690CF15E68ECF14E697CF13E698CFFB
:1002900012E696CF11E694CF20952423B1CF5C9A35
:1002A000D1CF5D9ACFCF5B9ACDCF5E984F5F5F4F36
:1002B0004830510549F6EFEDF1E03197F1F700C014
:1002C00000002F5F3F4FFFEFEF1AFF0A2430310588
:1002D00009F09ECF119709F096CF5E9A289A2B9A33
:1002E0002D9A409A5F9A2A9A2C9A5B985D985C980E
:1002F00029985A984398429841988F5F8C3009F01A
:1003000048CF902780E011E64DCF2898CFCF2B988B
:10031000CDCF2D98CBCF4098C9CF5F98C7CF2A9823
:10032000C5CFF999FECF92BD81BDF89A992780B5C6
:100330000895EE0FFF1F0590F491E02D0994F894B5
:02034000FFCFED
:0E03420030313233333333323130303000005B
:00000001FF
