:100000000C9434000C943E000C943E000C943E0082
:100010000C943E000C943E000C943E000C943E0068
:100020000C943E000C943E000C943E000C943E0058
:100030000C943E000C943E000C943E000C943E0048
:100040000C943E000C943E000C943E000C943E0038
:100050000C943E000C943E000C943E000C943E0028
:100060000C943E000C943E0011241FBECFEFD4E050
:10007000DEBFCDBF0E9495000C94A8020C94000036
:10008000EF92FF920F931F93CF93DF938B01FB01AE
:10009000D081D11112C0009781F48CEF91E00E94C1
:1000A0008C02C82F8BEF91E00E948C022C2F30E045
:1000B000322F2227820F932F911D7C01F694E79413
:1000C0009C013695279536952795AC0163E05695AA
:1000D00047956A95E1F7242735272827392775E0C2
:1000E000969587957A95E1F78227932799278695A4
:1000F00097958827E82AF92ADF5FF801D083DF3F48
:1001000061F46F2D8CEF91E00E9494026E2D8BEFC5
:1001100091E00E949402F8011082C701DF91CF9113
:100120001F910F91FF90EF900895CF93DF93CDB77C
:10013000DEB7A7970FB6F894DEBF0FBECDBF84B76A
:10014000A89584B7877F84BF809160008861809381
:1001500060001092600080917C00806480937C003D
:100160008EEF91E00E948C02182F80EF810F803E6D
:1001700040F48FEF91E00E948C02181302C010939C
:1001800066008FE384B98FE087B98CEF8AB95E9AF5
:10019000289A2B9A2D9A409A5F9A2A9A2C9A5B98C1
:1001A0005D985C9829985A98439842984198109283
:1001B000C1001092C50080E18093C40082E080936A
:1001C000C00088E18093C10086E08093C20085E092
:1001D00090E022EB35E026BD35BDA89BFECFA89A66
:1001E00015BCA8950197B9F788E199E00FB6F89486
:1001F000A895809360000FBE909360001982BE01A5
:100200006F5F7F4F90E080E00E944000BE016F5F13
:100210007F4F0E944000DC01A170BB279D012F5F32
:100220003F4FAC0102C0440F551F2A95E2F79A01D7
:100230006A01F12CE12C2C01712C612C66E070E03C
:10024000417055275B834A83442450E85522CC24CF
:10025000E0E8DE22AC01442750745D834C83A901A1
:10026000442750745F834E83AC01442750725987F2
:100270004887A901442750725B874A87AC0144270D
:1002800050715D874C87A901442750715F874E8765
:10029000AC0144275870598B488BA90144275870EA
:1002A0005B8B4A8BAC01442754705D8B4C8BA9014E
:1002B000442754705F8B4E8BA89550E040E0FC01C2
:1002C000EE27F270F98FE88FF901EE27F270FB8FBD
:1002D000EA8FFC01EE27F170FD8FEC8FF901EE271C
:1002E000F170FF8FEE8FFC01E078FF27F9A3E8A300
:1002F000F901E078FF27FBA3EAA31C01F0E42F2219
:1003000033244901E0E48E2299248C0100721127E4
:10031000F901E072FF27FDA3ECA3FC01E071FF27C8
:10032000FFA3EEA35901F0E1AF22BB24FA013197FC
:10033000EF30F10598F4E156FE4F0C94A202D9017A
:10034000E201EA01F201FE010A02150222022F0275
:100350003C0249025602630270027D02109711F0BE
:10036000299A2898EA81FB81EF2B11F0299A2B9882
:10037000E7EBFBE03197F1F700C000005E9A289AA6
:100380002B9A2D9A409A5F9A2A9A2C9A5B985D989C
:100390005C9829985A984398429841984F5F5F4FCC
:1003A0004031510509F0C2CF6150710909F084CF85
:1003B0002DCF81FF02C0299A5F9821FFD9CF299ABA
:1003C0004098D6CF82FF02C05C9A289822FFD0CFF7
:1003D0005C9ACDCF83FF02C05C9A5F9823FFC8CFA1
:1003E0005C9AEECFEEA1FFA1EF2B11F05D9A289859
:1003F000A114B10409F4BCCF5D9AB9CF0115110560
:1004000011F05D9A5F98ECA1FDA1EF2B09F4B0CF3C
:100410005D9AD6CF2114310411F05B9A289881148B
:10042000910409F4A5CF5B9AA2CFE8A1F9A1EF2B23
:1004300011F05B9A5F98EAA1FBA1EF2B09F498CF2A
:100440005B9ABECFEC8DFD8DEF2B11F0419A289871
:10045000EE8DFF8DEF2B09F48BCF419A88CFE88D7D
:10046000F98DEF2B11F0419A5F98EA8DFB8DEF2B00
:1004700009F47ECF419AA4CFEC89FD89EF2B11F0CE
:10048000429A2898EE89FF89EF2B09F471CF429A9E
:100490006ECFE889F989EF2B11F0429A5F98EA89CB
:1004A000FB89EF2B09F464CF429A8ACFEC85FD8556
:1004B000EF2B11F0439A2898EE85FF85EF2B09F476
:1004C00057CF439A54CFE885F985EF2B11F0439A23
:1004D0005F98EA85FB85EF2B09F44ACF439A70CFEA
:1004E000EC81FD81EF2B11F05A9A2898EE81FF8163
:1004F000EF2B09F43DCF5A9A3ACF411451046104CD
:10050000710411F05A9A5F98C114D104E104F10406
:1005100009F42ECF5A9A54CFF999FECF92BD81BDDE
:10052000F89A992780B50895262FF999FECF1FBA1A
:1005300092BD81BD20BD0FB6F894FA9AF99A0FBE0C
:1005400001960895EE0FFF1F0590F491E02D099498
:04055000F894FFCF4D
:00000001FF
