:100000000C9452000C946F000C946F000C946F00D1
:100010000C946F000C946F000C946F000C946F00A4
:100020000C946F000C946F000C946F000C946F0094
:100030000C946F000C946F000C946F000C946F0084
:100040000C946F000C946F000C946F000C946F0074
:100050000C946F000C946F000C946F000C946F0064
:100060000C946F000C946F004E414E494E49545908
:10007000494E46CDCCCC3D0AD7233C17B7D1387773
:10008000CC2B329595E6241FB14F0A000020410089
:1000900000C84200401C4620BCBE4CCA1B0E5AAED3
:1000A000C59D740011241FBECFEFD4E0DEBFCDBFCD
:1000B00021E0ACECB1E001C01D92AF3CB207E1F72A
:1000C00011E0A0E0B1E0EEE5F1E102C005900D9293
:1000D000AC3CB107D9F70E94C8010C94AD080C9450
:1000E00000009091C00095FFFCCF8093C60008955A
:1000F0008F929F92AF92BF92CF92DF92EF92FF9238
:100100000F931F93CF93DF93CDB7DEB72C970FB626
:10011000F894DEBF0FBECDBF9E012F5F3F4F790128
:10012000690110E000E02AE0822E912CA12CB12C74
:100130000F5F1F4FA50194010E946608605DF601E4
:1001400061936F01B901CA01161617061806190640
:100150007CF30E0D1F1DF8011082F80182918F01B2
:100160000E9471000E151F05C1F780E22C960FB694
:10017000F894DEBF0FBECDBFDF91CF911F910F91DD
:10018000FF90EF90DF90CF90BF90AF909F908F90B7
:100190000C9471000F931F93CF93DF93EC018C01AC
:1001A00008531F4F8991882329F00E947100C017BE
:1001B000D107C1F7DF91CF911F910F91089530E0E2
:1001C00020E04091C00047FD0BC02F5F3F4FA89536
:1001D00021344FE13407ACF3019789F780E00895AB
:1001E00081E008950F931F93CF9330E020E0DC016E
:1001F00050E040E05B985D985C9829985A98439845
:10020000429841985E9A289A2B9A2D9A409A5F9A22
:100210002A9A2C9A2C9AFD91C0E0F7FF02C0FF7732
:10022000C1E0BA016F5F7F4F63307105F9F0643050
:100230007105F1F062307105B9F0299AE0EDEF0F28
:10024000EA3008F04BC00E2E000CFF0BE65DFE4FAF
:100250000C9485087C013A017F0159015C015F0122
:100260006201650168016B015C9AE8CF5D9AE6CF97
:100270005B9AE4CF25E131E0E7ECF0E03197F1F76C
:1002800000C000008901F80141918F01EFE9E40FFE
:10029000E73008F045C00E2E000CFF0BEE5AFE4F63
:1002A0000C94850882018401860188018A018C01F1
:1002B0008E012EE131E0E0CF24E231E0DDCF29E212
:1002C00031E0DACF2FE231E0D7CF25E331E0D4CFF0
:1002D00020E031E0D1CF28E031E0CECFF111CCCF1A
:1002E000EFEBF2E13197F1F700C000004F5F5F4F95
:1002F00044305105A9F723C02EE031E0BDCF28E1FD
:1003000031E0BACF5E98BFCF2898BDCF2B98BBCF36
:100310002D98B9CF4098B7CF5F98B5CF2A98B3CF73
:100320004111B1CFC1112C98E7EFF1E13197F1F70D
:1003300000C00000AB016430710509F05BCF409153
:10034000C00047FF54CFCF911F910F910895CF93D5
:10035000DF93FC0101900020E9F73197E81BF90BCE
:100360009F0121503109E80FF91FDC01AD01481B45
:10037000590B421753074CF44D915291ED012197BF
:100380005883408321503109F1CFDF91CF910895F7
:10039000CF93DF93CDB7DEB76E970FB6F894DEBF7D
:1003A0000FBECDBF84B7A89584B7877F84BF8091E7
:1003B00060008861809360001092600080917C00F2
:1003C000806480937C008EEF91E00E948D07182F4F
:1003D00080EF810F803E40F48FEF91E00E948D0707
:1003E000181302C0109366008FE384B98FE087B9B9
:1003F0008CEF8AB95E9A289A2B9A2D9A409A5F9A26
:100400002A9A2C9A5B985D985C9829985A984398F8
:100410004298419885B78F7E85BF87B18F7C87B919
:1004200088B1806388B91092C1001092C50080E144
:100430008093C40082E08093C00088E18093C10073
:1004400086E08093C2008AE090E022EB35E026BD92
:1004500035BDA89BFECFA89A15BCA8950197B9F702
:100460008FEE91E00E948D0782FD44C081E0809371
:10047000CC0104B600FE19C084B78E7F84BF89E327
:1004800091E00E94CA0082E390E00E94DF0088238E
:10049000B1F38091C6008F7D823589F782E591E0C6
:1004A0000E94CA0081E08093CC018FEE91E00E940F
:1004B0008D0781FF04C08091CC018823F1F06FEF9C
:1004C0008FEE91E00E94950780E491E00E94CA00BF
:1004D0008E010F5F1F4F1E012DE0220E311CF8010F
:1004E0001192E215F305E1F78091C00087FD08C085
:1004F000A895FACF1092CC01BCCF85E591E0E6CF6C
:100500008091C60090ED980F9A3020F08D3211F056
:100510008E3251F789838E3211F480EB8983C801C2
:100520000E94F20088E090E00E94DF008823D1F36F
:100530008091C6008D3011F08A3081F481E090E026
:100540000E94DF0081118091C600C8010E94F20064
:100550008091C00087FD32C0A895FACF90ED980F2A
:100560009A30A8F08E3239F1883099F08D32D1F678
:100570009F8198879E819F839D819E839C819D837F
:100580009B819C839A819B8399819A83C7CF883072
:1005900081F48A8189838B818A838C818B838D818D
:1005A0008C838E818D838F818E8388858F8318863F
:1005B000B6CF8E32E9F689818068B0CF8091C600CF
:1005C000C8010E94A701F80190E080E0DF012191BD
:1005D00027FF10C08E5F2F772C93FE013C9690E092
:1005E0009F01201B310B281739070CF462C02291A0
:1005F0002183F6CF01968C30910541F782E591E099
:100600000E94CA00C8010E94CA008DE591E00E94C4
:10061000CA00C8010E94B0042DEC3CEC4CEC5DE338
:100620000E94F407698F7A8F8B8F9C8F498C5A8C2C
:100630006B8C7C8CE89467F87724689467F8FFEFFC
:100640004F1A5F0A6F0A7F0A898D9A8DAB8DBC8D18
:1006500047E1B595A795979587954A95D1F78F5717
:10066000910927E130E0A901481B590B588F4F8BA6
:1006700010E000E0C12CD12C7601C39462E0862EFC
:10068000912CA12CB12C8F89988D08171907E4F4AF
:10069000C114D104E10490E4F9068CF0C301B20165
:1006A000A50194010E94660829013A010F5F1F4FBE
:1006B000EACF8C0F9D1F2EE2FC0120839FCFCC0C34
:1006C000DD1CEE1CFF1CF2CFC301B2010E947800BA
:1006D00085E791E00E94CA00C701B6010E94780038
:1006E0008CE691E00E94CA00C301B201A701960105
:1006F0000E94660849015A012B013C012AE0A10130
:10070000C501B4010E94B404F10101900020E9F791
:10071000CF010197821993098C010F5F1F4FF101DF
:10072000E80FF91F2EE220839101200F311F388F2F
:100730002F8BAC01485F5F4F5E8F4D8F2AE0822E7A
:10074000912CA12CB12C9CEC4916590669069CE011
:10075000790688F0C301B201A50194010E946608E0
:1007600029013A01C701B601A50194010E9466085A
:1007700069017A01E8CFAAE0B0E0A30192010E94EA
:10078000A307A70196010E9466082B013C010F5F99
:100790001F4F205DEF89F88D2193F88FEF8B093083
:1007A000110529F08D8D9E8D0817190761F6F1014D
:1007B000E00FF11F108271018101F801D1908F01CA
:1007C000DD2021F08D2D0E947100F7CF498C5A8CCD
:1007D0006B8C7C8CFFEF4F1A5F0A6F0A7F0A81E8EF
:1007E00091E00E94CA0010E000E0812C912CA12C25
:1007F00090E8B92ED501C401002E04C0B695A79586
:10080000979587950A94D2F784219521A621B7213F
:10081000892B8A2B8B2BA1F081E30E947100003180
:10082000110551F07CF40830110531F00C30110540
:1008300019F00115110579F480E20E9471000BC0D6
:1008400080E3EBCF08311105B9F30C311105A1F3A9
:100850000431110589F30F5F1F4F0032110551F666
:1008600088EA91E00E94CA0010E000E0812C912CFF
:10087000A12C80E8B82ED501C401002E04C0B69585
:10088000A795979587950A94D2F784219521A6215B
:10089000B721892B8A2B8B2BA9F081E30E94710051
:1008A0000F30110559F084F40830110509F448C0DF
:1008B0000B30110519F00115110579F480E20E9441
:1008C00071000BC080E3EACF07311105B9F30B319A
:1008D0001105A1F30331110589F30F5F1F4F00329A
:1008E000110549F625E0220E311CF70181917F01A7
:1008F000882371F0DD2089F18E3239F5F7013297C6
:10090000808180688083DD24D3942E143F0469F7AE
:10091000198ACE010D960E94A701CE010D960E9464
:10092000F200CE010D960E94F20088E199E00FB628
:10093000F894A895809360000FBE90936000FFCF5D
:1009400080E20E94710081E3BACFD394F1E0FD15FB
:10095000E4F6F70132978083D8CF8E3279F2D5CF83
:10096000662777270C94E504BB272A3051F4992396
:1009700042F4BDE290958095709561957F4F8F4FC1
:100980009F4F0C94C404BB27FA01A62F6217710570
:1009900081059105330B30FB66F0AA27660F771FA0
:1009A000881F991FAA1FA21710F0A21B6395385029
:1009B000A9F7A05DAA3308F0A95DA19336F7B1119C
:1009C000B1931082CA010C945606B0E0A0E0EBEEA1
:1009D000F4E00C94B4075C017B016115710519F01A
:1009E000DB018D939C9385010F5F1F4FF501D08133
:1009F0008D2F90E00E9435066C01892BB9F5DD3210
:100A0000B9F50F5F1F4FD5011196DC91C1E0580178
:100A1000F1E0AF1AB10843E050E060E770E0C501D3
:100A20000E943E06892B69F5680182E0C80ED11C40
:100A300045E050E06BE670E0C6010E943E06892B5F
:100A400021F4680197E0C90ED11CE114F10419F0FA
:100A5000D701CD92DC9260E070E080E89FEFC11199
:100A6000FFC060E070E080E89FE7FAC05801BBCFAC
:100A7000DB3229F485010E5F1F4FF501D181C0E003
:100A8000C6CF43E050E068E670E0C5010E943E0634
:100A9000892BE9F0F80110E000E020E030E0A90146
:100AA0005F01B0ED8B2E8D0E89E08815C8F19C2E6C
:100AB000689491F88C2F8870C2FF16C0811102C013
:100AC0000F5F1F4F3196D501DC91C92DE9CFE1149D
:100AD000F10429F00E5F1F4FF7011183008360E0DE
:100AE00070E080EC9FE7BCC0882311F00150110931
:100AF000A5E0B0E00E94A3079B01AC01220F331FC9
:100B0000441F551F280D311D411D511D283999E9DC
:100B10003907490799E15907A8F2C6609C2ED2CF40
:100B2000AEEF8A1206C0C3FD3CC09C2E689493F8B9
:100B3000C9CFDF7DD534A9F580818D3239F4C0610C
:100B4000DF011296818162E070E006C0DF018B3226
:100B5000C1F3119661E070E080535D01A61AB70AF7
:100B60008A30F8F4E0E8CE16ECE0DE065CF4B6017C
:100B7000660F771F660F771FC60ED71ECC0CDD1CC5
:100B8000C80ED11C5D01FFEFAF1ABF0A8C918053D4
:100B90008A30A8F1C4FF03C0D194C194D1080C0DD0
:100BA0001D1DC1FF09C0E114F10431F081E0A81A54
:100BB000B108D701AD92BC92CA01B9010E946B067F
:100BC000C370C33009F490584B015C0120E030E061
:100BD000A9010E946606882309F440C0CFE9D0E04D
:100BE00017FF05C0119501951109C7E8D0E06E0106
:100BF000B8E1CB1AD10880E2E82EF12C0FC0D50164
:100C0000B1CFFE0125913591459154910E191F09DF
:100C1000C501B4010E94CC064B015C01D501C401A1
:100C20000E151F0574F72497F594E794CC16DD068E
:100C3000A9F78A2F880F8B2F881F8F3F49F020E05C
:100C400030E0A901C501B4010E946606811106C009
:100C500082E290E09093CE018093CD01C501B40172
:100C6000CDB7DEB7ECE00C94D00791110C943907A6
:100C7000803219F089508550C8F70895FB01DC01D6
:100C80004150504088F08D9181341CF08B350CF42C
:100C9000805E659161341CF06B350CF4605E861BE0
:100CA000611171F3990B0895881BFCCFDC01FC01E5
:100CB000672F71917723E1F7329704C07C916D9390
:100CC00070836291AE17BF07C8F308950E94A8060B
:100CD00008F481E00895E89409C097FB3EF49095EC
:100CE0008095709561957F4F8F4F9F4F9923A9F005
:100CF000F92F96E9BB279395F69587957795679594
:100D0000B795F111F8CFFAF4BB0F11F460FF1BC0D7
:100D10006F5F7F4F8F4F9F4F16C0882311F096E96A
:100D200011C0772321F09EE8872F762F05C0662318
:100D300071F096E8862F70E060E02AF09A95660FD1
:100D4000771F881FDAF7880F9695879597F908958A
:100D5000990F0008550FAA0BE0E8FEEF16161706CC
:100D6000E807F907C0F012161306E407F50798F034
:100D7000621B730B840B950B39F40A2661F0232B4D
:100D8000242B252B21F408950A2609F4A140A695C9
:100D90008FEF811D811D08950E94DF060C9453077B
:100DA0000E94450738F00E944C0720F0952311F06F
:100DB0000C943C070C94420711240C9487070E9462
:100DC000640770F3959FC1F3950F50E0551F629F24
:100DD000F001729FBB27F00DB11D639FAA27F00D94
:100DE000B11DAA1F649F6627B00DA11D661F829FBB
:100DF0002227B00DA11D621F739FB00DA11D621FA0
:100E0000839FA00D611D221F749F3327A00D611DBC
:100E1000231F849F600D211D822F762F6A2F11249E
:100E20009F5750409AF0F1F088234AF0EE0FFF1FD1
:100E3000BB1F661F771F881F91505040A9F79E3F28
:100E4000510580F00C943C070C9487075F3FE4F356
:100E5000983ED4F3869577956795B795F795E7957E
:100E60009F5FC1F7FE2B880F911D9695879597F987
:100E7000089599278827089597F99F6780E870E07B
:100E800060E008959FEF80EC089500240A94161600
:100E9000170618060906089500240A941216130668
:100EA000140605060895092E0394000C11F48823F6
:100EB00052F0BB0F40F4BF2B11F460FF04C06F5F12
:100EC0007F4F8F4F9F4F089557FD9058440F551FE8
:100ED00059F05F3F71F04795880F97FB991F61F0BC
:100EE0009F3F79F087950895121613061406551F33
:100EF000F2CF4695F1DF08C0161617061806991F9F
:100F0000F1CF86957105610508940895E894BB2793
:100F100066277727CB0197F90895F999FECF92BDFF
:100F200081BDF89A992780B50895262FF999FECFAB
:100F30001FBA92BD81BD20BD0FB6F894FA9AF99AF6
:100F40000FBE019608950E94E507A59F900DB49FDE
:100F5000900DA49F800D911D112408952F923F9212
:100F60004F925F926F927F928F929F92AF92BF92B9
:100F7000CF92DF92EF92FF920F931F93CF93DF9365
:100F8000CDB7DEB7CA1BDB0B0FB6F894DEBF0FBEC2
:100F9000CDBF09942A88398848885F846E847D840F
:100FA0008C849B84AA84B984C884DF80EE80FD8011
:100FB0000C811B81AA81B981CE0FD11D0FB6F89487
:100FC000DEBF0FBECDBFED010895A29FB001B39F5C
:100FD000C001A39F700D811D1124911DB29F700D42
:100FE000811D1124911D08950E9408080C94530737
:100FF0000E944C0758F00E94450740F029F45F3FDB
:1010000029F00C943C0751110C9487070C9442076B
:101010000E94640768F39923B1F3552391F3951B5C
:10102000550BBB27AA2762177307840738F09F5F09
:101030005F4F220F331F441FAA1FA9F335D00E2E76
:101040003AF0E0E832D091505040E695001CCAF7E3
:101050002BD0FE2F29D0660F771F881FBB1F2617A6
:1010600037074807AB07B0E809F0BB0B802DBF017D
:10107000FF2793585F4F3AF09E3F510578F00C944C
:101080003C070C9487075F3FE4F3983ED4F38695C2
:1010900077956795B795F7959F5FC9F7880F911D6D
:1010A0009695879597F90895E1E0660F771F881F59
:1010B000BB1F621773078407BA0720F0621B730B0C
:1010C000840BBA0BEE1F88F7E0950895052E97FB69
:1010D0001EF400940E947D0857FD07D00E948B08E3
:1010E00007FC03D04EF40C947D0850954095309544
:1010F00021953F4F4F4F5F4F089590958095709584
:1011000061957F4F8F4F9F4F0895EE0FFF1F059002
:10111000F491E02D0994A1E21A2EAA1BBB1BFD013C
:101120000DC0AA1FBB1FEE1FFF1FA217B307E407C6
:10113000F50720F0A21BB30BE40BF50B661F771F1E
:10114000881F991F1A9469F76095709580959095FE
:0E1150009B01AC01BD01CF010895F894FFCFC3
:10115E00616263646566670067616263660061620F
:10116E006364656600626300616264656700616264
:10117E006364670062636667006163646667006745
:10118E00636465660062636100523F202020200088
:10119E000D0A53656E64207265616C206E756D620A
:1011AE0065720D0A000D0A416761696E002064695F
:1011BE00766964656420627920302E312065717500
:1011CE00616C7320006469766964656420627920BD
:1011DE00000D0A46504E3A2057697468206E756DA0
:1011EE00657261746F722062697473207A65726FB2
:1011FE0020746F20323209000D0A46504E3A207785
:10120E006974682066756C6C2032342062697420B3
:0C121E006E756D657261746F72090900D5
:00000001FF
