:100000000C9434000C9451000C9451000C94510049
:100010000C9451000C9451000C9451000C944A0122
:100020000C9451000C9451000C9451000C9451000C
:100030000C9451000C9451000C9451000C945100FC
:100040000C9451000C9451000C9451000C945100EC
:100050000C9451000C9451000C9451000C945100DC
:100060000C9451000C94510011241FBECFEFD4E02A
:10007000DEBFCDBF11E0A0E0B1E0E6E7FBE002C0EB
:1000800005900D92AE3EB107D9F722E0AEEEB1E099
:1000900001C01D92A230B207E1F70E9472020C94D7
:1000A000B9050C940000282F8A30BCF06AE00E9449
:1000B0001605392F80E3890F8093EF01822F220FDD
:1000C000990B831B910937FD93956AE070E00E94BC
:1000D0002405605D6093F001089580E38093F00152
:1000E000205D2093EF010895AC0148535F4FFC0160
:1000F0002191CF01222349F03091C00035FFFCCF80
:100100002093C6008417950791F7089530E020E00A
:100110004091C00047FD0EC02F5F3F4FA89521348E
:100120004FE134071CF0019730E020E0009781F7A1
:1001300080E0089581E00895CF93DF9390E080E020
:10014000AAEFB1E050E040E05B985D985C98299898
:100150005A984398429841985E9A289A2B9A2D9AD9
:10016000409A5F9A2A9A2C9A2C9A2D9130E027FF78
:1001700002C02F7731E04F5F5F4FFA013297E730CF
:10018000F10558F4EA53FF4F0C945705E400E600DC
:10019000E800EA00EC00EE00F000299AE0EDE20F42
:1001A000EA3008F04EC00E2E000CFF0BE652FF4F57
:1001B0000C9457052E01F20009010C010F011201E8
:1001C000150118011B011E015C9AE8CF5D9AE6CF6C
:1001D0005B9AE4CF419AE2CF429AE0CF439ADECFD6
:1001E0005A9ADCCF87E191E0EC012991EFE9E20F27
:1001F000E73008F044C00E2E000CFF0BEE5FFE4F00
:100200000C945705310133013501370139013B01A8
:100210003D018AE191E0E8CF80E291E0E5CF86E21E
:1002200091E0E2CF8BE291E0DFCF81E391E0DCCFA0
:1002300087E391E0D9CF82E091E0D6CF8AE091E0E8
:10024000D3CF2111D1CF4830510509F07DCF209176
:10025000C00027FF75CFDF91CF91089580E191E035
:10026000C3CF5E98C2CF2898C0CF2B98BECF2D9811
:10027000BCCF4098BACF5F98B8CF2A98B6CF21119B
:10028000B4CF31112C98EFEBF2E13197F1F700C0C8
:100290000000D9CF1F920F920FB60F9211244F92E8
:1002A0005F926F927F928F929F92AF92BF92CF9206
:1002B000DF92EF92FF922F933F934F935F936F9351
:1002C0007F938F939F93AF93BF93EF93FF93CF93BE
:1002D000DF93CDB7DEB72697DEBFCDBF8091B300E9
:1002E0008A598093B3008091F9018F5F8093F9015F
:1002F0008091F8018F5F8093F8018091F801893037
:1003000041F48FEF8093F8018091B3008C5F80936C
:10031000B3008091F901823009F0BFC01092F90159
:100320008091F4019091F501A091F601B091F7014F
:100330000296A11DB11D8093F4019093F501A09345
:10034000F601B093F7018091F4019091F501A0912D
:10035000F601B091F70181159F42AD40B10541F41E
:100360001092F4011092F5011092F6011092F7012B
:100370008091F4019091F501A091F601B091F701FF
:1003800089839A83AB83BC836091F4017091F501FA
:100390008091F6019091F70120EAC22E2CE8D22E2E
:1003A000E12CF12CA70196010E94380538E5832E37
:1003B00032E0932EA12CB12CA50194010E943805A6
:1003C0002E832093F3016091F4017091F5018091E7
:1003D000F6019091F701A70196010E943805A50149
:1003E00094010E9438054AE0442E512C612C712C56
:1003F000A30192010E9438052D832093F2016091A0
:10040000F4017091F5018091F6019091F701A70137
:1004100096010E943805A50194010E943805A301A8
:1004200092010E943805B62E6093F10169817A81AC
:100430008B819C81A70196010E943805822F0E9422
:1004400053008091F001809301028091EF0180932D
:1004500000028E810E9453008091F0018093FF0181
:100460008091EF018093FE018D810E945300809165
:10047000F0018093FD018091EF018093FC018AE0FF
:100480008B9D802D11240E9453008091F001809358
:10049000FB018091EF018093FA0126960FB6F89444
:1004A000DEBF0FBECDBFDF91CF91FF91EF91BF9126
:1004B000AF919F918F917F916F915F914F913F91FC
:1004C0002F91FF90EF90DF90CF90BF90AF909F90D3
:1004D0008F907F906F905F904F900F900FBE0F9016
:1004E0001F901895FF920F931F93CF93DF9304B63D
:1004F00000FE03C081E08093EE0184B7A89584B725
:10050000877F84BF80916000886180936000109233
:10051000600080917C00806480937C008EEF91E08D
:100520000E940005C82F80EF8C0F803E40F48FEFB3
:1005300091E00E940005C81302C0C09366008FE3DB
:1005400084B98FE087B98CEF8AB95E9A289A2B9A82
:100550002D9A409A5F9A2A9A2C9A1092C100109272
:10056000C50080E18093C40082E08093C00088E1F0
:100570008093C10086E08093C20085E090E022EB8A
:1005800035E026BD35BDA89BFECFA89A15BCA89521
:100590000197B9F78091EE01882309F4DEC089EF55
:1005A00091E00E9400058F3F09F4D7C088EF91E0E9
:1005B000909301018093000189EF91E00E94000572
:1005C000809301020AEF11E0D0E0C0E090E3F92E41
:1005D00080910001909101019C01215031093093DB
:1005E000010120930001C430D10509F0B1C00E947F
:1005F00000058093FC01F092FB01F092FA01219634
:1006000001501109C530D10519F780910102082E5A
:10061000000C990BC097EAE0E89F9001E99F300D2C
:100620001124032E000C440B550B80910002082E60
:10063000000C990BAA0BBB0B820F931FA41FB51FB5
:100640009C01AD012053310941095109A0E1BEE0EF
:100650000E945D052091FF01022E000C330B2053F8
:100660003109E29FA001E39F500D11242091FE016A
:10067000420F511D27FD5A9540535109FCE3F49F49
:100680009001F59F300D1124032E000C440B550BE7
:10069000260F371F481F591F8091FD01082E000C9F
:1006A000990BC097E89FB001E99F700D1124072EA8
:1006B000000C880B990B260F371F481F591F80917C
:1006C000FC01082E000C990BAA0BBB0B820F931F89
:1006D000A41FB51F9C01AD012053310941095109E7
:1006E000AAE0B0E00E945D056093F4017093F5010B
:1006F0008093F6019093F7018091C1008F7E8093E3
:10070000C100789480E28093B6001092B2001092FB
:10071000B0008091B10083608093B1001092B4006A
:100720001092F8011092F9011092B20086E68093BF
:10073000B300809170008260809370000E949C00E2
:1007400090E080E0DF91CF911F910F91FF9008958D
:100750000E940005F801868352CF8BE391E00E944E
:10076000740082E791E00E94740082E390E00E94AE
:1007700086008823B1F3C091C600C23511F0C2379C
:1007800081F787ED91E00E947400C23509F01BC12A
:100790001092FA011092FB011092FC011092FD01DF
:1007A0001092FE011092FF011092000210920102BD
:1007B00089E791E00E9474001092FA011092FB0107
:1007C0001092FC011092FD011092FE011092FF01A7
:1007D00010920002109201025E9A289A2B9A2D9A8A
:1007E000409A5F9A2A9A2C9A5B985D985C9829980F
:1007F0005A9843984298419882E390E00E9486007C
:10080000811105C08AED91E00E947400F5CF6091DE
:10081000C6006093010280910001909101019C014A
:100820002150310930930101209300010E940805F5
:100830000E949C000AEF11E0D0E0C0E080E3F82EB7
:1008400085E090E00E9486008823D1F3809100012A
:10085000909101019C01215031096091C600C43082
:10086000D10509F0A5C06093FC01309301012093EC
:1008700000010E940805F092FB01F092FA01219616
:1008800001501109C530D105D9F680910102082E19
:10089000000C990BC097EAE0E89F9001E99F300DAA
:1008A0001124032E000C440B550B80910002082EDE
:1008B000000C990BAA0BBB0B820F931FA41FB51F33
:1008C0009C01AD012053310941095109A0E1BEE06D
:1008D0000E945D052091FF01022E000C330B205376
:1008E0003109E29FA001E39F500D11242091FE01E8
:1008F000420F511D27FD5A9540535109FCE3F49FC7
:100900009001F59F300D1124032E000C440B550B64
:10091000260F371F481F591F8091FD01082E000C1C
:10092000990BC097E89FB001E99F700D1124072E25
:10093000000C880B990B260F371F481F591F8091F9
:10094000FC01082E000C990BAA0BBB0B820F931F06
:10095000A41FB51F9C01AD01205331094109510964
:10096000AAE0B0E00E945D056093F4017093F50188
:100970008093F6019093F7015E9A289A2B9A2D9A0C
:10098000409A5F9A2A9A2C9A5B985D985C9829986D
:100990005A984398429841980E949C008FED91E0AC
:1009A0000E9474008091C00087FD27C0A895FACFEF
:1009B000F801668330930101209300010E9408052D
:1009C0000E949C005CCF80E38093FB018093FC013C
:1009D0008093FD018093FE018093FF0180930002CC
:1009E000809301028093FA011092F4011092F501B4
:1009F0001092F6011092F701CFCF8091C6007CCE05
:100A0000F999FECF92BD81BDF89A992780B50895D6
:100A1000262FF999FECF1FBA92BD81BD20BD0FB61A
:100A2000F894FA9AF99A0FBE0196089587FB082E5A
:100A3000062687FD819567FD61950E9468050EF485
:100A4000919507FC8195089597FB072E16F4009465
:100A500007D077FD09D00E94740507FC05D03EF44D
:100A6000909581959F4F0895709561957F4F08955A
:100A7000052E97FB1EF400940E944F0557FD07D0EA
:100A80000E94880507FC03D04EF40C944F05509546
:100A90004095309521953F4F4F4F5F4F089590956A
:100AA0008095709561957F4F8F4F9F4F0895EE0F02
:100AB000FF1F0590F491E02D09940E94AA05A59FBF
:100AC000900DB49F900DA49F800D911D1124089549
:100AD000991B79E004C0991F961708F0961B881F90
:100AE0007A95C9F780950895AA1BBB1B51E107C0F1
:100AF000AA1FBB1FA617B70710F0A61BB70B881FAE
:100B0000991F5A95A9F780959095BC01CD0108953C
:100B1000A1E21A2EAA1BBB1BFD010DC0AA1FBB1F01
:100B2000EE1FFF1FA217B307E407F50720F0A21B73
:100B3000B30BE40BF50B661F771F881F991F1A94E0
:100B400069F760957095809590959B01AC01BD010A
:100B5000CF010895A29FB001B39FC001A39F700D64
:100B6000811D1124911DB29F700D811D1124911DB5
:060B70000895F894FFCF88
:100B7600F9016162636465666700676162636600C6
:100B86006162636465660062630061626465670052
:100B960061626364670062636667006163646667D7
:100BA6000067636465660062636100507265737313
:100BB6002027522720746F20656E74657220746931
:100BC6006D65206F722027722720746F2073746101
:100BD60072742061742074696D65207A65726F2065
:100BE6002000523F2020202000456E74657220733D
:100BF600746172742074696D6520486F7572732C08
:100C0600204D696E7574657320616E64205365634B
:100C16006F6E64730D0A28323420686F7572206314
:100C26006C6F636B2077697468206E6F20737061D8
:100C3600636573292E205465726D696E6174652033
:100C4600776974682063720D0A00543F20200041C2
:0E0C56004B20746F2073746172740D0A0000DD
:00000001FF
