:100000000C9434000C9449000C9449000C94490061
:100010000C9449000C9449000C9449000C9449003C
:100020000C9449000C9449000C9449000C9449002C
:100030000C9449000C9449000C9449000C9449001C
:100040000C9449000C9449000C9449000C9449000C
:100050000C9449000C9449000C9449000C944900FC
:100060000C9449000C94490011241FBECFEFD4E03A
:10007000DEBFCDBF11E0A0E0B1E0E0E7F2E002C0FA
:1000800005900D92A634B107D9F70E945D000C943B
:1000900036010C940000AC0148535F4FFC012191E4
:1000A000CF01222349F03091C00035FFFCCF2093CF
:1000B000C6008417950791F70895CF93DF93CDB7C6
:1000C000DEB769970FB6F894DEBF0FBECDBF84B719
:1000D000A89584B7877F84BF8091600088618093F2
:1000E00060001092600080917C00806480937C00AE
:1000F0005A984398429841985E9A289A2B9A2D9A3A
:10010000409A5F9A2A9A2C9A8DE384B98FE087B936
:1001100084EC8AB985B78F7E85BF3D98459A109249
:10012000C1001092C50080E18093C40082E08093FA
:10013000C00088E18093C10086E08093C2008AE01D
:1001400090E022EB35E026BD35BDA89BFECFA89AF6
:1001500015BCA8950197B9F78AEF91E00E9420019C
:1001600081111FC06FEF8AEF91E00E94280180E0AB
:1001700091E00E944B0090E080E022E330E040916B
:10018000C00047FD42C00196A89581344FE1940715
:1001900024F02150310990E080E02115310579F7F4
:1001A000E6CF8FE391E03DC08091C6008D3061F0D5
:1001B0008A3051F09091C00095FFFCCF8093C6002B
:1001C000D9018D939D0133C0AE0FBF1F1C92819149
:1001D000882349F09FE9980F9A31C8F7DF011197FA
:1001E00080528C93F4CF8CE391E00E944B00C801C5
:1001F0000E944B0088E199E00FB6F894A89580938F
:1002000060000FBE90936000FFCF8091C6008F7D8D
:10021000823509F0ACCF8CE391E00E944B0087E07F
:1002200091E00E944B00FE0131969F018F01D901A0
:10023000AE1BBF0B8091C00087FDB6CFA895FACF4B
:10024000F999FECF92BD81BDF89A992780B508959E
:10025000262FF999FECF1FBA92BD81BD20BD0FB6E2
:10026000F894FA9AF99A0FBE01960895F894FFCF80
:10027000523F20202020000D0A456E7465722073C5
:100280006F6D65207465787420206D6179626520DA
:10029000746865206E616D65206F66206120736FE4
:1002A0006E67207468656E202D63722D0D0A000D37
:0602B0000A3F20200000BF
:00000001FF
