:103580000C94F41A0C94111B0C94111B0C94111B29
:103590000C94111B0C94111B0C94111B0C94111BFB
:1035A0000C94111B0C94111B0C94111B0C94111BEB
:1035B0000C94111B0C94111B0C94111B0C94111BDB
:1035C0000C94111B0C94111B0C94111B0C94111BCB
:1035D0000C94111B0C94111B0C94111B0C94111BBB
:1035E0000C94111B0C94111B11241FBECFEFD4E0BF
:1035F000DEBFCDBF11E0A0E0B1E0EAECF7E302C02E
:1036000005900D92AA32B107D9F721E0AAE2B1E004
:1036100001C01D92AC32B207E1F70E94541B0C941A
:10362000E31B0C94C01A2FE738E391E0215030409F
:103630009040E1F700C00000E1ECF0E010828093E0
:10364000C5006093C40082E08093C00088E180835D
:1036500086E08093C20008959091C00095FFFCCF52
:103660008093C6000895CF93DF93EC01899188235E
:1036700019F00E942C1BFACFDF91CF91089520E022
:1036800030E04091C00047FD0DC02F5F3F4F213A11
:103690004FE034071CF0019720E030E0009789F7F5
:1036A00080E0089581E00895CF9304B601FC03C043
:1036B00014BE0C94000014BE04B603FE03C081E0E7
:1036C00080932A01A89584B7877F84BF809160008A
:1036D0008861809360001092600080917C0080641B
:1036E00080937C00609166008DEF91E00E94D51B75
:1036F0008EEF91E00E94CD1BC82F80EF8C0F803E93
:1037000040F48FEF91E00E94CD1BC81302C0C0931C
:10371000660085B78F7E85BF14B817B81AB88FEFCB
:1037200085B988B98BB960E180E00E94131B2FE74F
:1037300088E391E0215080409040E1F700C0000014
:1037400080E091E00E94331B8AEF90E00E943F1BD3
:103750008823B1F38091C60080932B01803751F00C
:10376000823719F40C940000EBCF88E091E00E94BE
:10377000331BE6CF8CE091E00E94331B81E085BFD4
:1037800082E085BF60E08FEE91E00E94D51B0C9433
:10379000001C80E090E0CF910895F999FECF92BD92
:1037A00081BDF89A992780B50895262FF999FECF03
:1037B0001FBA92BD81BD20BD0FB6F894FA9AF99A4E
:0A37C0000FBE01960895F894FFCFA4
:1037CA00702F7220202020003F0D0A000D0A536539
:1037DA006E645F41746D65676120313638204865D3
:0A37EA00782066696C650D0A000086
