:102E80000C9474170C9491170C9491170C9491173F
:102E90000C9491170C9491170C9491170C94911712
:102EA0000C9491170C9491170C9491170C94911702
:102EB0000C9491170C9491170C9491170C949117F2
:102EC0000C9491170C9491170C9491170C949117E2
:102ED0000C9491170C9491170C9491170C949117D2
:102EE0000C9491170C94911711241FBECFEFD4E0CE
:102EF000DEBFCDBF11E0A0E0B1E0EAE1F5E302C042
:102F000005900D92A437B107D9F721E0A4E7B1E00D
:102F100001C01D92A438B207E1F70E947B190C94FE
:102F20008B1A0C9440170F92FF93EF93F091780156
:102F3000E0918101049000928301EF91FF910F9045
:102F400008954F9341E10E94C0174F9108950F9249
:102F5000FF93EF930F934F93F0917801E0918101EC
:102F600049E00091570000FDFCCF409357000490CA
:102F7000009283014F910F91EF91FF910F9008956F
:102F80000F930091570000FDFCCF40935700E89548
:102F90000F91089520E030E04091C00047FD0DC042
:102FA0002F5F3F4F213A4FE034071CF0019720E09C
:102FB00030E0009789F780E0089581E008959091CE
:102FC000C00095FFFCCF8093C60008950F931F9318
:102FD000CF93DF93EC018C0108531F4F8991882315
:102FE00029F00E94DF17C017D107C1F7DF91CF91F9
:102FF0001F910F9108958091C00087FFFCCF8091B1
:10300000C600089588E090E00E94CA178823D1F393
:103010008091C6008D3011F08A3041F481E090E05B
:103020000E94CA1781118091C6008DE008950F9308
:103030001F93CF93DF938C01FC0108961192E81740
:10304000F907E1F70E94FB1790ED980F9A30D0F73F
:10305000E80189930E9402188D3029F090ED980FB5
:103060009A30C0F7F6CFC801DF91CF911F910F9131
:103070000C94571A8BE091E00C94E61766BD85BD61
:10308000A89BFECFA89A15BC0895CF93C82F829510
:103090008F708A3010F0895C01C0805D0E94DF175C
:1030A0008C2F8F708A3010F0895C01C0805DCF91C9
:1030B0000C94DF17CF93C82F892F0E9445188C2FAF
:1030C0000E94451880E191E0CF910C94E6170F9390
:1030D0001F93CF93DF93EC01CC0FDD1FD0937801CA
:1030E000C09381010E9493170091830110E0102F7B
:1030F00000272196D0937801C09381010E949317F5
:10310000809183019801280F311DC901DF91CF9172
:103110001F910F9108954F925F926F927F928F92BD
:103120009F92AF92BF92CF92DF92EF92FF920F9356
:103130001F93CF93DF931092750110927401E0906A
:103140007601F090770182E091E00E94E6170E94FC
:10315000FB17082F10E000531109CC24C394D12C85
:10316000C0E0D0E0812C912C4AE0442E512C560135
:1031700021E0A21AB1081E141F0494F0DF91CF9130
:103180001F910F91FF90EF90DF90CF90BF90AF9085
:103190009F908F907F906F905F904F900C943A1813
:1031A000CE010E94671890937A01809379013E01C5
:1031B0008FEF681A780A0115110571F4C501B20183
:1031C0000E942F1A892B19F48AE20E94DF176CEDF6
:1031D00085E00E943E1814C00E943A18CE01880F64
:1031E000991F0E945A188EE091E00E94E6172FEF77
:1031F000821A920A8091790190917A010E945A185C
:10320000809174019091750101969093750180935E
:10321000740181E0E81AF1085E0128E0A20EB11CF9
:10322000E301CE010E94671890937A01809379019F
:103230002196019621F181E0E81AF10801151105A6
:1032400051F06CED85E00E943E18809179019091DB
:103250007A010E945A18809174019091750101962B
:103260009093750180937401809100019091010108
:10327000C817D9073CF5CA15DB0599F61FC001151B
:10328000110549F0C40187709927892B21F48BE03F
:1032900091E00E94E6178091000190910101C8170A
:1032A000D9070CF06BCF2FEFC21AD20A80917901A7
:1032B00090917A01019609F05ACF60CF011511055E
:1032C00091F3E0CF01151105E9F658CF0F931F9345
:1032D000CF93DF938C01C0E0D0E0C017D10734F466
:1032E00062EB85E00E943E182196F7CFDF91CF91E7
:1032F0001F910F910895CF93DF93CDB7DEB7289735
:103300000FB6F894DEBF0FBECDBF82E191E00E9400
:10331000E61784E190E00E9466198091C100806107
:103320008093C1000E94FB178033A9F00E943A18D5
:103330000E943A186DEF8FEE91E00E947D1A14BE44
:1033400098E088E10FB6F894A895809360000FBECE
:103350009093600083C088E291E00E94E617CE015E
:1033600001960E94171897FD019695958795909361
:103370007D0180937C01892B41F480910001909123
:10338000010190937D0180937C0180917C0190915B
:103390007D010E945A1880917C0190917D0190934B
:1033A0007701809376010E948B180E943A18209131
:1033B0007C0130917D0180910001909101012817DD
:1033C000390761F484E491E00E94E617809174016A
:1033D00090917501880F991F0E945A1886E591E017
:1033E0000E94E61700E010E0EE24E394F12C93E055
:1033F000C92ED12C22E0A22EB12C0230110581F071
:103400000330110591F00130110529F0B0928001CF
:10341000A0927F010EC0D0928001C0927F0109C0AE
:103420001092800110927F0104C0F0928001E0921E
:103430007F0180917F0110927801809381010E9429
:10344000A717809183010E94451889E00E94DF1729
:103450000F5F1F4F0430110581F668CFFFCF97FB38
:10346000072E16F4009407D077FD09D00E94431A66
:1034700007FC05D03EF4909581959F4F0895709577
:1034800061957F4F0895AA1BBB1B51E107C0AA1F7E
:10349000BB1FA617B70710F0A61BB70B881F991FF5
:1034A0005A95A9F780959095BC01CD010895FC012E
:1034B00088279927E89421912032E9F3293010F0E8
:1034C0002E30C8F32B3241F02D3239F4689404C009
:1034D0000E94751A820F911D219120532A30C0F34A
:1034E0001EF4909581959F4F08957AE0979F902DB7
:1034F000879F802D910D11240895262FF999FECFD5
:103500001FBA92BD81BD20BD0FB6F894FA9AF99A00
:0A3510000FBE01960895F894FFCF56
:10351A0080180930206F7220414F4B0D0A0020207D
:10352A002000093020746F20766572696679206FF1
:10353A007220414F4B0D0A00636D645F636F756EB5
:10354A007465723F207A65726F20666F72206675A5
:10355A006C6C09004865785F66696C655F73697AA7
:10356A00653A09307800554E4F20467573657320C9
:10357A00452C20482C204C20616E64206C6F636BB4
:04358A003A090000FA
