:100000000C9434000C943E000C943E000C943E0082
:100010000C943E000C943E000C943E000C943E0068
:100020000C943E000C943E000C943E000C943E0058
:100030000C943E000C943E000C943E000C943E0048
:100040000C943E000C943E000C943E000C943E0038
:100050000C943E000C943E000C943E000C943E0028
:100060000C943E000C943E0011241FBECFEFD4E050
:10007000DEBFCDBF0E9453000C9468030C940000B7
:1000800030E020E04091C00047FD0BC02F5F3F4FA4
:10009000A89521344FE13407ACF3019789F780E04C
:1000A000089581E00895CF93DF93CDB7DEB7CC54A8
:1000B000D1090FB6F894DEBF0FBECDBF84B7A895A7
:1000C00084B7877F84BF80916000886180936000DF
:1000D0001092600080917C00806480937C008EEFA1
:1000E00091E00E941903182F80EF810F803E40F4A9
:1000F0008FEF91E00E941903181302C0109366005D
:100100008FE384B98FE087B98CEF8AB95E9A289A19
:100110002B9A2D9A409A5F9A2A9A2C9A1092C10093
:100120001092C50080E18093C40082E08093C000FB
:1001300088E18093C10086E08093C20085E090E072
:1001400022EB35E026BD35BDA89BFECFA89A15BC95
:10015000A8950197B9F75E9A289A2B9A2D9A409AFA
:100160005F9A2A9A2C9A5B985D985C9829985A987D
:100170004398429841981D861E861F86188A198AC0
:100180001A8A1B8A1C8A8091C00087FD02C0A8952C
:10019000FACF8091C60090ED980F9A30A0F78D8726
:1001A00088E090E00E9440008823D1F38091C6004F
:1001B0008D3011F08A3049F581E090E00E944000D6
:1001C00081118091C600CE010D96FC0101900020A6
:1001D000E9F78F0101501109DC01BC0160957095B0
:1001E000AD01481B590B9B01200F311F42175307CC
:1001F000FCF42D91F80132918F01AD01415051096C
:10020000FA013083F8012083EBCF90ED980F9A30FC
:1002100038F69B899C8B9A899B8B99899A8B9889B4
:10022000998B9F85988B9E859F879D859E87B7CF4D
:100230000E94DD026B017C01EE24FF248E010F5F22
:100240001F4F4801C701B601B12CA12C2AE0422E54
:10025000512C612C712CFFEFAF1ABF0AA301920140
:100260000E942103605DD4016D934D01B901CA0163
:10027000611571058105910571F7F801EA0DFB1D06
:10028000108282919091C00095FFFCCF8093C600B0
:10029000E017F107B1F78091C00085FFFCCF80E245
:1002A0008093C600B701A6014170552766277727BE
:1002B0004D8B5E8B6F8B788FC701B6016627707888
:1002C000698F7A8F8B8F9C8FD701C6018827907496
:1002D000AA27BB278D8F9E8FAF8FB8A3B701A6012A
:1002E000442750726627772749A35AA36BA37CA3A0
:1002F000C701B60166277071882799276DA37EA371
:100300008FA398A7D701C60188279870AA27BB2773
:1003100089A79AA7ABA7BCA7B701A6014427547029
:10032000662777274DA75EA76FA778ABC701B601F1
:10033000662772708827992769AB7AAB8BAB9CAB29
:10034000D701C60188279170AA27BB278DAB9EAB2A
:10035000AFABB8AFB701A60140785527662777271E
:1003600049AF5AAF6BAF7CAFC701B6016074772756
:100370008827992721966CAF7DAF8EAF9FAF2197CD
:10038000D701C60180729927AA27BB2725968CAF73
:100390009DAFAEAFBFAF2597B701A60140715527FE
:1003A000662777272D964CAF5DAF6EAF7FAF2D9749
:1003B00025E630E090E080E04601570158E08522D4
:1003C0009924AA24BB242601370164E0462255243F
:1003D00066247724B701A601427055276627772740
:1003E00029964CAF5DAF6EAF7FAF2997FC01319777
:1003F000EF30F10598F4E150FE4F0C9440033802C1
:1004000045024C02530260026D027A02850290029C
:100410009B02A602B102BC02C702D2024D895E89CC
:100420006F89788D452B462B472B11F0299A2898F8
:10043000AFEBB2E11197F1F700C000005E9A289A85
:100440002B9A2D9A409A5F9A2A9A2C9A5B985D98DB
:100450005C9829985A98439842984198019680311F
:10046000910509F0C3CF2150310909F0A3CFA0CFE6
:1004700029964CAD5DAD6EAD7FAD2997452B462BD2
:10048000472BB1F2299A5F98D3CF411451046104EC
:10049000710471F25C9ACBCF81149104A104B10470
:1004A00039F25C9AF0CF2D964CAD5DAD6EAD7FAD5F
:1004B0002D97452B462B472B09F4BACF5D9AB7CF22
:1004C00025964CAD5DAD6EAD7FAD2597452B462B8A
:1004D000472B09F4ADCF5D9AD6CF21964CAD5DADDB
:1004E0006EAD7FAD2197452B462B472B09F4A0CF4E
:1004F0005B9A9DCF49AD5AAD6BAD7CAD452B462B7C
:10050000472B09F495CF5B9ABECF4DA95EA96FA981
:1005100078AD452B462B472B09F48ACF419A87CFDC
:1005200049A95AA96BA97CA9452B462B472B09F44D
:100530007FCF419AA8CF4DA55EA56FA578A9452B81
:10054000462B472B09F474CF429A71CF49A55AA57F
:100550006BA57CA5452B462B472B09F469CF429A06
:1005600092CF4DA15EA16FA178A5452B462B472BBD
:1005700009F45ECF439A5BCF49A15AA16BA17CA13C
:10058000452B462B472B09F453CF439A7CCF4D8DF7
:100590005E8D6F8D78A1452B462B472B09F448CFF4
:1005A0005A9A45CF498D5A8D6B8D7C8D452B462BA4
:1005B000472B09F43DCF5A9A66CF1F93FC01992728
:1005C0008827BC01E89411911032E9F3193010F03A
:1005D0001E30C8F31B3251F01D3249F4689406C036
:1005E0000E940403610F711D811D911D1191105313
:1005F0001A30B0F33EF490958095709561957F4FD9
:100600008F4F9F4F1F910895592F482F372F262F17
:10061000660F771F881F991F660F771F881F991F06
:10062000620F731F841F951F660F771F881F991F06
:100630000895F999FECF92BD81BDF89A992780B5AA
:100640000895052E97FB1EF400940E94380357FD71
:1006500007D00E94460307FC03D04EF40C943803E5
:1006600050954095309521953F4F4F4F5F4F0895DE
:1006700090958095709561957F4F8F4F9F4F08950E
:10068000EE0FFF1F0590F491E02D0994A1E21A2EC0
:10069000AA1BBB1BFD010DC0AA1FBB1FEE1FFF1F26
:1006A000A217B307E407F50720F0A21BB30BE40B76
:1006B000F50B661F771F881F991F1A9469F76095BD
:1006C0007095809590959B01AC01BD01CF01089577
:0406D000F894FFCFCC
:00000001FF
