:100000000C9434000C9449000C9449000C94490061
:100010000C9449000C9449000C9449000C9449003C
:100020000C9449000C9449000C9449000C9449002C
:100030000C9449000C9449000C9449000C9449001C
:100040000C9449000C9449000C9449000C9449000C
:100050000C9449000C9449000C9449000C944900FC
:100060000C9449000C94490011241FBECFEFD4E03A
:10007000DEBFCDBF11E0A0E0B1E0EAE2F9E002C0EE
:1000800005900D92A638B107D9F70E9443010C9450
:1000900093040C9400009091C00095FFFCCF8093D6
:1000A000C60008950F931F93CF93DF93EC018C014B
:1000B00008531F4F8991882329F00E944B00C017D5
:1000C000D107C1F7DF91CF911F910F91089530E0D3
:1000D00020E04091C00047FD0BC02F5F3F4FA89527
:1000E00021344FE13407ACF3019789F780E008959C
:1000F00081E00895CF9330E020E0DC0170E060E023
:100100005B985D985C9829985A98439842984198D2
:100110005E9A289A2B9A2D9A409A5F9A2A9A2C9A3C
:100120002C9A4D9150E047FF02C04F7751E06F5F2E
:100130007F4FFB013297E730F10558F4EE55FF4F42
:100140000C945104C000C200C400C600C800CA001C
:10015000CC00299AE0EDE40FEA3008F057C00E2EEB
:10016000000CFF0BEA54FF4F0C9451040E01CE001B
:10017000EE00F100F400F700FA00FD0000010301B9
:100180005C9AE8CF5D9AE6CF5B9AE4CF419AE2CFE2
:10019000429AE0CF439ADECF5A9ADCCF25E131E094
:1001A000F9014191CFE9C40FC73048F4443609F44E
:1001B00043C0BCF54236E1F14336E1F15E984111AE
:1001C000F0CF51112C98EFEBF2E13197F1F700C02D
:1001D00000006830710509F093CF1AC028E131E0C2
:1001E000DFCF2EE131E0DCCF24E231E0D9CF29E2CC
:1001F00031E0D6CF2FE231E0D3CF25E331E0D0CFCD
:1002000020E031E0CDCF28E031E0CACF4111C8CFA6
:100210004091C00047FF71CFCF9108952EE031E0AB
:10022000BFCF463669F054F0473641F62A98B9CF29
:100230002898B7CF2B98B5CF2D98B3CF4098B1CF92
:100240005F98AFCFCF93DF93FC0101900020E9F7D7
:100250003197E81BF90B9F0121503109E80FF91F75
:10026000DC01AD01481B590B421753074CF44D916B
:100270005291ED0121975883408321503109F1CFEC
:10028000DF91CF910895CF93DF93CDB7DEB7A497D9
:100290000FB6F894DEBF0FBECDBF84B7A89584B764
:1002A000877F84BF80916000886180936000109296
:1002B000600080917C00806480937C008EEF91E0F0
:1002C0000E940C04182F80EF810F803E40F48FEFC6
:1002D00091E00E940C04181302C0109366008FE393
:1002E00084B98FE087B98CEF8AB95E9A289A2B9AE5
:1002F0002D9A409A5F9A2A9A2C9A1092C1001092D5
:10030000C50080E18093C40082E08093C00088E152
:100310008093C10086E08093C20085E090E022EBEC
:1003200035E026BD35BDA89BFECFA89A15BCA89583
:100330000197B9F704B600FE21C089E391E00E945D
:10034000520082E390E00E9467008823B1F380911D
:10035000C6008F7D823589F785E691E00E945200C4
:1003600060E08AEF91E00E94140414BE5E9A289A1D
:100370002B9A2D9A409A5F9A2A9A2C9A8AEF91E0AA
:100380000E940C0481111DC06FEF8AEF91E00E9462
:10039000140480E491E00E94520081E591E00E9403
:1003A00052008E010F5F1F4FCE010D96F801119282
:1003B000E817F907E1F78091C00087FD05C0A8950F
:1003C000FACF88E691E0EBCF8091C60090ED980FD0
:1003D0009A3020F08D3211F08E3269F789838E3297
:1003E00011F480EB8983C8010E947A0088E090E0D4
:1003F0000E9467008823D1F38091C6008D3011F0F0
:100400008A3051F581E090E00E946700811180916F
:10041000C600C8010E947A008091C600C8010E94EF
:100420002201F801312C212C819187FF46C0F8016F
:10043000E20DF31D8F7780832394F801E20DF11D07
:10044000312CCF01801B910B08970CF040C081919B
:100450008823E9F13394F5CF90ED980F9A30B0F0FE
:100460008E3241F18830A1F08D3209F0BFCF9F81EB
:1004700098879E819F839D819E839C819D839B8184
:100480009C839A819B8399819A83ACCF883081F435
:100490008A8189838B818A838C818B838D818C83F4
:1004A0008E818D838F818E8388858F8318869BCFE5
:1004B0008E32E9F68981806895CF2FEF221A320AB1
:1004C00038E02316310409F0AFCF212C312C30FE57
:1004D00012C0822D022C000C990B830D911D37FC4C
:1004E0009A95F801E80FF91F20E320838C0F9D1FD8
:1004F000FC011282339485E691E00E94520080E371
:10050000820D0E944B0089E00E944B0080E3830D26
:100510000E944B0085E691E00E94520081E791E045
:100520000E945200C8010E94520085E691E00E949C
:100530005200C8010E94D0032B013C01812C912C58
:1005400054018394F4E04F16510461047104ECF0FB
:1005500042E0C42ED12CE12CF12C4601570121E0C0
:10056000821A9108A108B108A7019601C701B60136
:100570000E942204461657066806790634F03FEFBB
:10058000C31AD30AE30AF30AE8CF8E01005F1F4FB4
:100590006E014FE1C40ED11CF8011192CE16DF0698
:1005A000E1F7C501B4012EE0E22EF12C2AE030E0A3
:1005B00040E050E00E943204605DF60162936F01FA
:1005C000F1E0EF1AF108B901CA0161157105810561
:1005D000910561F7F7FC19C0D80121E030E08EE009
:1005E00090E08E199F098217930754F0F901EE0DE0
:1005F000FF1DE00FF11F40814D932F5F3F4FF3CF61
:10060000800F911F2EE2FC012083ECA2EFE0EE1997
:1006100086E18E198BA3A4E6B0E0A30192010E94AB
:1006200057046F8F78A389A39AA32B013C01AAE0FA
:10063000B0E0A50194010E945704F62FC62ED72ED4
:100640007C01460157012FEFC21AD20AE20AF20AD0
:10065000A7019601C701B6010E9422042F8D38A17F
:1006600049A15AA1261737074807590754F7D80157
:10067000AE0FB11DE7FDBA958FE28F1BC80ECC926D
:10068000EF5FFBA1EF13C7CF86E1ECA18E1BF80152
:10069000E80FF11D87FDFA9510827801F70181912D
:1006A0007F01882319F00E944B00F8CF85E691E086
:1006B0000E945200C8010E945200F80190E080E0C0
:1006C00021912E32B1F422242A94280E822D022C5C
:1006D000000C990BF801E80FF91F20812068208396
:1006E00031969F01201B310B2E3031053CF42181C6
:1006F000F6CF01968F30910519F7E8CF3320A9F096
:100700003594232D032C000C330B231484F1FC01AE
:10071000E21BF30BE00FF11F208120682083F8011A
:10072000E80FF91F90819F77908384E791E00E9402
:100730005200188EC8010E942201C8010E947A004E
:100740008091C60088E199E00FB6F894A89580934F
:1007500060000FBE90936000FFCFF801E80FF91F13
:1007600090819F77908388898068888BDECFF8019D
:10077000E80FF91F40814F77408350E040E0281B8D
:10078000390B60E34217530744F7FE017E967291DE
:1007900071830E171F07D9F7688B4F5F5F4FF2CF3A
:1007A0001F93FC0199278827BC01E894119110320E
:1007B000E9F3193010F01E30C8F31B3251F01D322E
:1007C00049F4689406C00E94F703610F711D811DF2
:1007D000911D119110531A30B0F33EF4909580950D
:1007E000709561957F4F8F4F9F4F1F910895592F9F
:1007F000482F372F262F660F771F881F991F660FE8
:10080000771F881F991F620F731F841F951F660F24
:10081000771F881F991F0895F999FECF92BD81BD5A
:10082000F89A992780B50895262FF999FECF1FBA17
:1008300092BD81BD20BD0FB6F894FA9AF99A0FBE09
:1008400001960895DB018F939F930E945704BF91F7
:10085000AF91A29F800D911DA39F900DB29F900D0F
:1008600011240895052E97FB1EF400940E9449045C
:1008700057FD07D00E94620407FC03D04EF40C948D
:10088000490450954095309521953F4F4F4F5F4F0C
:10089000089590958095709561957F4F8F4F9F4FEC
:1008A0000895EE0FFF1F0590F491E02D09940E942A
:1008B0008404A59F900DB49F900DA49F800D911D61
:1008C00011240895A1E21A2EAA1BBB1BFD010DC025
:1008D000AA1FBB1FEE1FFF1FA217B307E407F507F0
:1008E00020F0A21BB30BE40BF50B661F771F881FCC
:1008F000991F1A9469F760957095809590959B0162
:10090000AC01BD01CF010895A29FB001B39FC0010A
:10091000A39F700D811D1124911DB29F700D811D2B
:0A0920001124911D0895F894FFCFF3
:10092A00616263646566670067616263660061624B
:10093A0063646566006263006162646567006162A0
:10094A006364670062636667006163646667006781
:10095A00636465660062636100523F2020202000C4
:10096A000D0A456E74657220696E74656765723F1B
:10097A00000D0A414B20746F20646973706C6179B1
:10098A0020726F6F740D0A000D0A416761696E0962
:10099A00000941000D0A0D0A414B20746F2072654F
:0609AA007065617400009D
:00000001FF
