:100000000C9434000C9449000C9449000C94490061
:100010000C9449000C9449000C9449000C9449003C
:100020000C9449000C9449000C9449000C9449002C
:100030000C9449000C9449000C9449000C9449001C
:100040000C9449000C9449000C9449000C9449000C
:100050000C9449000C9449000C9449000C944900FC
:100060000C9449000C94490011241FBECFEFD4E03A
:10007000DEBFCDBF11E0A0E0B1E0EEE5F6E002C0EA
:1000800005900D92A838B107D9F70E94CC000C94C6
:100090002D030C9400009091C00095FFFCCF80933D
:1000A000C60008958F929F92AF92BF92CF92DF9237
:1000B000EF92FF920F931F93CF93DF93CDB7DEB7ED
:1000C0002C970FB6F894DEBF0FBECDBF9E012F5FF9
:1000D0003F4F7901690110E000E02AE0822E912C67
:1000E000A12CB12C0F5F1F4FA50194010E94E602C5
:1000F000605DF60161936F01B901CA01161617061A
:10010000180619067CF30E0D1F1DF8011082F80168
:1001100082918F010E944B000E151F05C1F780E2EE
:100120002C960FB6F894DEBF0FBECDBFDF91CF91F6
:100130001F910F91FF90EF90DF90CF90BF90AF9005
:100140009F908F900C944B000F931F93CF93DF934E
:10015000EC018C0108531F4F8991882329F00E94DC
:100160004B00C017D107C1F7DF91CF911F910F91BD
:10017000089530E020E04091C00047FD0BC02F5FA4
:100180003F4FA89521344FE13407ACF3019789F72D
:1001900080E0089581E00895CF93DF93CDB7DEB777
:1001A0002C970FB6F894DEBF0FBECDBF84B7A895CD
:1001B00084B7877F84BF80916000886180936000EE
:1001C0001092600080917C00806480937C008CE3BE
:1001D00084B980EE8AB985B78F7E85BF52985A9AC6
:1001E0008EEF91E00E94D00289838051803E48F4D6
:1001F0008FEF91E00E94D0022981281302C0209342
:1002000066001092C1001092C50080E18093C40086
:1002100082E08093C00088E18093C10086E08093F3
:10022000C20085E090E022EB35E026BD35BDA89BFD
:10023000FECFA89A15BCA8950197B9F704B600FEA1
:100240001FC089E391E00E94A40082E390E00E9435
:10025000B9008823B1F38091C6008F7D823589F77C
:100260008DE691E00E94A40060E08AEF91E00E9498
:10027000D80214BE8BB1806E8BB985B18C6385B901
:100280008AEF91E00E94D002811109C16FEF8AEFDD
:1002900091E00E94D80280E491E00E94A40000E076
:1002A00011E01A821982F80181918F0181115FC0DA
:1002B00029813A812F5F3F4F3A83298380E30E944F
:1002C0004B0049815A814A30510569F784E591E034
:1002D0000E94A40000E380E091E09C01990F440B90
:1002E000550B29833A834B835C8383E391E09C0124
:1002F000990F440B550B2D833E834F8358878BE218
:1003000091E09C01990F440B550B29873A874B8745
:100310005C8787E291E06C01990FEE08FF0881E2AB
:1003200091E04C01990FAA08BB088BE191E02C01E8
:10033000990F6608770811E0100F802F0E944B007C
:1003400089E00E944B0001530930A0F4E02F002EF9
:10035000000CFF0BE255FE4F0C940503D801DF01A2
:10036000E201E501EC01EF01F201F501FA010E9461
:100370004B0099CF69817A818B819C810E945200C8
:1003800089E00E944B0080E091E0093008F039C01C
:10039000E02F000FFF0BE153FE4F0C940503FF010C
:1003A00037023A023D0240024302460249024C0231
:1003B00067E071E0072E000C880B990BDFCF6AE035
:1003C00071E0F8CF60E171E0F5CF46E151E0BA01AC
:1003D000550F880B990BD2CFC301B201CFCFC50106
:1003E000B401CCCFC701B601C9CF69857A858B85A9
:1003F0009C85C4CF6D817E818F819885BFCF87E03A
:1004000091E00E94A4008DE691E00E94A400012FDB
:100410001A3309F090CF60E471E0072E000C880BCE
:10042000990B0E9452008DE691E00E94A40064E5C1
:1004300071E0072E000C880B990B0E9452008DE68C
:1004400091E00E94A40080E791E00E94A4008BB19B
:10045000806E8BB985B18C6385B9F12CE12C81E07C
:1004600090E00E94B90081111DC0A895F8CF8AE0E4
:1004700091E0C7CF80E191E0C4CF86E191E0C1CFA8
:100480008BE191E0BECF81E291E0BBCF87E291E0CA
:10049000B8CF8BE291E0B5CF83E391E0B2CF8FE7A5
:1004A00091E0D3CF8BB1806E8BB985B18C6385B968
:1004B000E091C600E053EA3008F052C0F0E0ED5998
:1004C000FD4F0C9405036D0299028102840287029C
:1004D0008A028D02900293029602E0E0F1E081919F
:1004E0008823D9F187FDFBCF9FE9980F9730B8F7A4
:1004F000843669F10CF5823631F1833631F15E983C
:10050000EECFEAE0F1E0EBCFE0E1F1E0E8CFE6E1C9
:10051000F1E0E5CFEBE1F1E0E2CFE1E2F1E0DFCFC6
:10052000E7E2F1E0DCCFEBE2F1E0D9CFE3E3F1E0A9
:10053000D6CFE7E0F1E0D3CF863669F054F08736C6
:10054000F1F62C98CCCF5D98CACF2D98C8CF2B98B8
:10055000C6CF2A98C4CF5F98C2CF5FEFE51AF50ADD
:1005600088E0E816F1040CF47ACF81E090E00E9474
:10057000B900811102C0A895F8CF8091C6008BB157
:10058000806E8BB985B18C6385B988E199E00FB62F
:10059000F894A895809360000FBE90936000FFCF01
:1005A000F999FECF92BD81BDF89A992780B508953B
:1005B000262FF999FECF1FBA92BD81BD20BD0FB67F
:1005C000F894FA9AF99A0FBE01960895052E97FBB2
:1005D0001EF400940E94FD0257FD07D00E940B03F9
:1005E00007FC03D04EF40C94FD02509540953095D5
:1005F00021953F4F4F4F5F4F08959095809570958F
:1006000061957F4F8F4F9F4F0895EE0FFF1F05900D
:10061000F491E02D0994A1E21A2EAA1BBB1BFD0147
:100620000DC0AA1FBB1FEE1FFF1FA217B307E407D1
:10063000F50720F0A21BB30BE40BF50B661F771F29
:10064000881F991F1A9469F7609570958095909509
:0E0650009B01AC01BD01CF010895F894FFCFCE
:10065E00616263646566006263006162646567007F
:10066E006162636467006263666700616364666704
:10067E00006763646566006263610061626364655E
:10068E00666700676162636600523F20202020008B
:10069E00537472696E67206D656D6F727920647523
:1006AE006D7009000D0A44696769740941646472CA
:1006BE0065737320202020537472696E670D0A00D3
:1006CE000D0A53656E64206469676974733F000D8B
:0806DE000A416761696E00002A
:00000001FF
