:100000000C9434000C9451000C9451000C94510049
:100010000C9451000C9451000C9451000C9451001C
:100020000C9451000C9451000C9451000C9451000C
:100030000C9451000C9451000C9451000C945100FC
:100040000C9451000C9451000C9451000C945100EC
:100050000C9451000C9451000C9451000C945100DC
:100060000C9451000C94510011241FBECFEFD4E02A
:10007000DEBFCDBF11E0A0E0B1E0ECE5F6E002C0EC
:1000800005900D92AA36B107D9F721E0AAE6B1E0B2
:1000900001C01D92AB36B207E1F70E9442010C94F9
:1000A0002C030C940000AC0148535F4FFC012191DC
:1000B000CF01222349F03091C00035FFFCCF2093BF
:1000C000C6008417950791F7089530E020E040912D
:1000D000C00047FD0BC02F5F3F4FA89521344FE173
:1000E0003407ACF3019789F780E0089581E0089523
:1000F000CF93DF9330E020E0DC0150E040E05B98FC
:100100005D985C9829985A984398429841985E9ACD
:10011000289A2B9A2D9A409A5F9A2A9A2C9AFD91A6
:10012000BA016F5F7F4F63307105F9F0643071057C
:10013000F1F062307105B9F0299AE0EDEF0FEA3085
:1001400008F049C00E2E000CFF0BE755FF4F0C9432
:100150000403F900B900FC00D600D900DC00DF0080
:10016000E200E500E8005C9AE8CF5D9AE6CF5B9A92
:10017000E4CF25E131E0E7ECF0E03197F1F700C0A2
:100180000000E9014991EFE9E40FE73008F045C0CC
:100190000E2E000CFF0BE153FF4F0C940403FF00E5
:1001A000010103010501070109010B012EE131E005
:1001B000E2CF24E231E0DFCF29E231E0DCCF2FE2F1
:1001C00031E0D9CF25E331E0D6CF20E031E0D3CF05
:1001D00028E031E0D0CFF111CECFEFEBF2E1319753
:1001E000F1F700C000004F5F5F4F44305105A9F7A1
:1001F00021C02EE031E0BFCF28E131E0BCCF5E98D6
:10020000C1CF2898BFCF2B98BDCF2D98BBCF40989A
:10021000B9CF5F98B7CF2A98B5CF4111B3CFE7EFE9
:10022000F1E13197F1F700C00000AB0164307105D6
:1002300009F065CF4091C00047FF5ECFDF91CF91BD
:100240000895CF93DF93FC0101900020E9F73197E7
:10025000E81BF90B9F0121503109E80FF91FDC0160
:10026000AD01481B590B421753074CF44D91529165
:10027000ED0121975883408321503109F1CFDF915F
:10028000CF910895CF93DF93CDB7DEB729970FB6FF
:10029000F894DEBF0FBECDBF84B7A89584B7877F23
:1002A00084BF80916000886180936000109260003C
:1002B00080917C00806480937C008EEF91E00E94AE
:1002C000CF02182F80EF810F803E40F48FEF91E036
:1002D0000E94CF02181302C0109366008FE384B906
:1002E0008FE087B98CEF8AB95E9A289A2B9A2D9A5B
:1002F000409A5F9A2A9A2C9A5B985D985C98299804
:100300005A9843984298419885B78F7E85BF87B1A8
:100310008F7C87B988B1806388B91092C100109230
:10032000C50080E18093C40082E08093C00088E132
:100330008093C10086E08093C2008AE090E022EBC7
:1003400035E026BD35BDA89BFECFA89A15BCA89563
:100350000197B9F78FEE91E00E94CF0282FD3DC078
:1003600081E080936A0104B600FE19C084B78E7FD5
:1003700084BF89E391E00E94530082E390E00E94F1
:1003800065008823B1F38091C6008F7D823589F79F
:1003900080E491E00E94530081E080936A01198219
:1003A0001A821B821C821D828FEE91E00E94CF0276
:1003B00081FF04C080916A01882391F06FEF8FEE76
:1003C00091E00E94D70283E491E00E945300809163
:1003D000C00087FD08C0A895FACF10926A01C3CF6C
:1003E00081E691E0F2CF8091C60090ED980F9A30AF
:1003F00070F78983CE0101960E94780088E090E032
:100400000E9465008823D1F38091C6008D3019F0D9
:100410008A3009F038C081E090E00E9465008111C7
:100420008091C600CE0101960E942101CE01019665
:100430000E9452026B017C01CE0101960E942101B3
:10044000C701B60122E030E040E050E00E94E50242
:10045000CA01B9012AE0AE014F5F5F4F0E947902E5
:10046000CE0101960E942101CE0101960E947800E2
:1004700088E199E00FB6F894A895809360000FBECC
:1004800090936000FFCF9C819111CCCF90ED980F9D
:100490009A3008F0AFCF9B819C839A819B8399818E
:1004A0009A83A7CF1F93FC0199278827BC01E89462
:1004B00011911032E9F3193010F01E30C8F31B32DD
:1004C00051F01D3249F4689406C00E948802610F01
:1004D000711D811D911D119110531A30B0F33EF41E
:1004E00090958095709561957F4F8F4F9F4F1F918D
:1004F0000895BB272A3051F4992342F4BDE2909528
:100500008095709561957F4F8F4F9F4F0C949E0201
:10051000592F482F372F262F660F771F881F991FB7
:10052000660F771F881F991F620F731F841F951F07
:10053000660F771F881F991F0895BB27FA01A62F02
:100540006217710581059105330B30FB66F0AA2710
:10055000660F771F881F991FAA1FA21710F0A21BF2
:1005600063953850A9F7A05DAA3308F0A95DA1935F
:1005700036F7B111B1931082CA010C94BF02DC01AD
:10058000FC01672F71917723E1F7329704C07C91CA
:100590006D9370836291AE17BF07C8F30895F99900
:1005A000FECF92BD81BDF89A992780B50895262F78
:1005B000F999FECF1FBA92BD81BD20BD0FB6F89448
:1005C000FA9AF99A0FBE01960895052E97FB1EF42C
:1005D00000940E94FC0257FD07D00E940A0307FC0A
:1005E00003D04EF40C94FC02509540953095219523
:1005F0003F4F4F4F5F4F089590958095709561954F
:100600007F4F8F4F9F4F0895EE0FFF1F0590F4917E
:10061000E02D0994A1E21A2EAA1BBB1BFD010DC0FF
:10062000AA1FBB1FEE1FFF1FA217B307E407F507A2
:1006300020F0A21BB30BE40BF50B661F771F881F7E
:10064000991F1A9469F760957095809590959B0114
:0C065000AC01BD01CF010895F894FFCF6C
:10065C00616263646566670067616263660061621C
:10066C006364656600626300616264656700616271
:10067C006364670062636667006163646667006752
:10068C00636465660062636100523F202020200095
:10069C000D0A000D0A53656E6420696E74656765FA
:1006AC00723F20414B20746F207265706561742E0F
:0A06BC00000D0A416761696E00003D
:00000001FF
