:100000000C9434000C943E000C943E000C943E0082
:100010000C943E000C943E000C943E000C943E0068
:100020000C943E000C943E000C943E000C943E0058
:100030000C943E000C943E000C943E000C943E0048
:100040000C943E000C943E000C943E000C943E0038
:100050000C943E000C943E000C943E000C943E0028
:100060000C943E000C943E0011241FBECFEFD4E050
:10007000DEBFCDBF0E9440000C948B000C940000AA
:100080008BB1806E8BB985B18C6385B984B7A89527
:1000900084B7877F84BF809160008861809360000F
:1000A0001092600080917C00806480937C008CE3DF
:1000B00084B980EE8AB985B78F7E85BF52985A9AE7
:1000C0001092C1001092C50080E18093C40082E0CC
:1000D0008093C00088E18093C10086E08093C200D5
:1000E00085E090E022EB35E026BD35BDA89BFECF34
:1000F000A89A15BCA8950197B9F790E285B1892710
:1001000085B92FEF30E782E0215030408040E1F7A1
:0A01100000C00000F3CFF894FFCF09
:00000001FF
