:100000000C9434000C9451000C9451000C94510049
:100010000C9451000C9451000C9451000C9451001C
:100020000C9451000C9451000C9451000C9451000C
:100030000C9451000C9451000C9451000C945100FC
:100040000C9451000C9451000C9465000C945100D8
:100050000C9451000C9451000C9451000C945100DC
:100060000C9451000C94510011241FBECFEFD4E02A
:10007000DEBFCDBF11E0A0E0B1E0E0E5F2E002C0FC
:1000800005900D92A630B107D9F721E0A6E0B1E0C6
:1000900001C01D92A830B207E1F70E94A1000C94A4
:1000A00026010C940000AC0148535F4FFC012191E4
:1000B000CF01222349F03091C00035FFFCCF2093BF
:1000C000C6008417950791F708951F920F920FB6F7
:1000D0000F9211242F933F934F935F936F937F93CE
:1000E0008F939F93AF93BF93CF93DF93EF93FF9340
:1000F0008091C60080E091E00E945300D0E0C0E013
:1001000080910701082E000C990B8C179D0734F085
:1001100083E091E00E9453002196F2CFFF91EF918E
:10012000DF91CF91BF91AF919F918F917F916F910F
:100130005F914F913F912F910F900FBE0F901F90A5
:1001400018958BB1806E8BB985B18C6385B904B677
:1001500003FE03C081E080930601A89584B7877FE2
:1001600084BF80916000886180936000109260007D
:1001700080917C00806480937C008CE384B980EE65
:100180008AB985B78F7E85BF52985A9A1092C1005E
:100190001092C50080E18093C40082E08093C0008B
:1001A00088E18093C10086E08093C20085E090E002
:1001B00022EB35E026BD35BDA89BFECFA89A15BC25
:1001C000A8950197B9F780910601813021F080E070
:1001D00091E00E9453008091C10080688093C1002B
:1001E000789480E091E00E94530081E29091C000F9
:1001F00095FFFCCF8093C6002FE739EA93E02150AA
:1002000030409040E1F700C000008F5F90910701FF
:100210009F5F90930701A8958F3741F7F8948091DD
:10022000C00087FD02C0A895FACF8091C60080E08B
:1002300091E00E94530088E199E00FB6F894A895E8
:10024000809360000FBE90936000FFCFF894FFCFC3
:060250000D0A0020000071
:00000001FF
