:100000000C9434000C9446000C9446000C9446006A
:100010000C9446000C9446000C9446000C94460048
:100020000C9446000C9446000C9446000C94460038
:100030000C9446000C9446000C9446000C94460028
:100040000C9446000C9446000C9446000C94460018
:100050000C9446000C9446000C9446000C94460008
:100060000C9446000C94460011241FBECFEFD4E040
:10007000DEBFCDBF21E0A0E0B1E001C01D92AB30FA
:10008000B207E1F70E9498000C9448020C9400001B
:100090000F931F93CF93DF93D0910A01D11112C018
:1000A000009781F48CEF91E00E940A02C82F8BEF39
:1000B00091E00E940A022C2F30E0322F2227820F7B
:1000C000932F911D8C01169507959C0136952795C8
:1000D00036952795AC0163E0569547956A95E1F70B
:1000E000242735272827392775E0969587957A950F
:1000F000E1F7822793279927869597958827082BDC
:10010000192BDF5FD0930A01DF3F61F4612F8CEF81
:1001100091E00E941202602F8BEF91E00E94120288
:1001200010920A01C801DF91CF911F910F9108959C
:10013000CF93DF93CDB7DEB729970FB6F894DEBF24
:100140000FBECDBF84B7A89584B7877F84BF809149
:1001500060008861809360001092600080917C0054
:10016000806480937C008EEF91E00E940A02182F39
:1001700080EF810F803E40F48FEF91E00E940A02F1
:10018000181302C0109366008DE384B98FE087B91D
:1001900084EC8AB95E9A289A2B9A2D9A409A5F9A93
:1001A0002A9A2C9A5B985D985C9829985A9843985B
:1001B000429841981092C1001092C50080E180934E
:1001C000C40082E08093C00088E18093C10086E093
:1001D0008093C20085E090E022EB35E026BD35BD7E
:1001E000A89BFECFA89A15BCA8950197B9F71982CC
:1001F0001A821B821C821D821E821F821886109208
:100200000A0190E080E00E944800909309018093E9
:1002100008018824839437E0432E512C612C712CE3
:10022000AA24A394B12C222423942824C09008014A
:10023000D0900901F12CE12C912CC701B601A3014A
:1002400092010E94200211E6160FC6010E9448008A
:100250006C01F12CE12CE82FE370E0930701212FD2
:100260002156330BB901D901A050BF4F2E2F0E2EAE
:10027000000C330B41E084121AC04C91042E000C88
:10028000550B02C055954795EA95E2F740FF29C006
:1002900020910A01215020930A012CE1322E931063
:1002A000CCCF9093090180930801822CBCCF4C9154
:1002B000042E000C550B02C055954795EA95E2F7C0
:1002C00040FFE6CFE1E0F0E0EC0FFD1FE20FF31F8F
:1002D000950101C0220F6A95EAF7209530813223FB
:1002E0000DC0E1E0F0E0EC0FFD1FE20FF31F950100
:1002F00001C0220F6A95EAF73081322B30836CE41B
:1003000070E08E010F5F1F4F30E020E05E9A289A68
:100310002B9A2D9A409A5F9A2A9A2C9A5B985D980C
:100320005C9829985A984398429841982130310511
:1003300069F114F52115310539F150E040E0F8017B
:10034000F081F987EF2FFF0FFF0B042E02C0F59508
:10035000E7950A94E2F7E0FF1EC047305105D8F454
:10036000FA01EB54FE4F0C944202CA01FE01000256
:1003700002020402060208022230310549F023304D
:100380003105D9F65A9AD9CF419AD7CF429AD5CFCB
:10039000439AD3CF5E984F5F5F4F4830510579F64F
:1003A000EFEDF1E03197F1F700C000002F5F3F4F14
:1003B0000F5F1F4F2830310509F0A8CF6150710938
:1003C00009F09FCF5E9A289A2B9A2D9A409A5F9AAD
:1003D0002A9A2C9A5B985D985C9829985A98439829
:1003E0004298419820910701A50101C0440F2A9528
:1003F000EAF72C9124272C9393944FCF2898CBCFB6
:100400002B98C9CF2D98C7CF4098C5CF5F98C3CF41
:100410002A98C1CFF999FECF92BD81BDF89A99274C
:1004200080B50895262FF999FECF1FBA92BD81BDE0
:1004300020BD0FB6F894FA9AF99A0FBE0196089566
:10044000A1E21A2EAA1BBB1BFD010DC0AA1FBB1FD8
:10045000EE1FFF1FA217B307E407F50720F0A21B4A
:10046000B30BE40BF50B661F771F881F991F1A94B7
:1004700069F760957095809590959B01AC01BD01E1
:10048000CF010895EE0FFF1F0590F491E02D099420
:04049000F894FFCF0E
:00000001FF
