:100000000C9434000C943E000C943E000C943E0082
:100010000C943E000C943E000C943E000C943E0068
:100020000C943E000C943E000C943E000C943E0058
:100030000C943E000C943E000C943E000C943E0048
:100040000C943E000C943E000C943E000C943E0038
:100050000C943E000C943E000C943E000C943E0028
:100060000C943E000C943E0011241FBECFEFD4E050
:10007000DEBFCDBF0E9495000C94E9020C940000F5
:10008000EF92FF920F931F93CF93DF938B01FB01AE
:10009000D081D11112C0009781F48CEF91E00E94C1
:1000A000B902C82F8BEF91E00E94B9022C2F30E0EB
:1000B000322F2227820F932F911D7C01F694E79413
:1000C0009C013695279536952795AC0163E05695AA
:1000D00047956A95E1F7242735272827392775E0C2
:1000E000969587957A95E1F78227932799278695A4
:1000F00097958827E82AF92ADF5FF801D083DF3F48
:1001000061F46F2D8CEF91E00E94C1026E2D8BEF98
:1001100091E00E94C102F8011082C701DF91CF91E6
:100120001F910F91FF90EF900895CF93DF93CDB77C
:10013000DEB7EB970FB6F894DEBF0FBECDBF84B726
:10014000A89584B7877F84BF809160008861809381
:1001500060001092600080917C00806480937C003D
:100160008EEF91E00E94B902182F80EF810F803E40
:1001700040F48FEF91E00E94B902181302C010936F
:1001800066008DE384B98FE087B984EC8AB95E9A02
:10019000289A2B9A2D9A409A5F9A2A9A2C9A5B98C1
:1001A0005D985C9829985A98439842984198109283
:1001B000C1001092C50080E18093C40082E080936A
:1001C000C00088E18093C10086E08093C20085E092
:1001D00090E022EB35E026BD35BDA89BFECFA89A66
:1001E00015BCA8950197B9F788E199E00FB6F89486
:1001F000A895809360000FBE909360001982BE01A5
:100200006F5F7F4F90E080E00E9440001C01812CD6
:10021000912C54018394C12CD12C7601C394C1013B
:1002200063E070E00E94CF0230E020E02817390739
:1002300099F0CC0CDD1CEE1CFF1CDD24EE24FF2409
:10024000C114D104E104F10421F4C12CD12C7601B4
:10025000C3942F5F3F4FEACF880C991CAA1CBB1C8C
:100260009924AA24BB2481149104A104B10421F48B
:10027000812C912C5401839426E030E03FAB2EABCF
:10028000B701A60140785527662777274A835B8305
:100290006C837D83C501B40160787727882799270F
:1002A0006E837F8388879987D701C60180749927D9
:1002B000AA27BB278A879B87AC87BD87A5019401A6
:1002C00020743327442755272E873F87488B598B27
:1002D000B701A60140725527662777274A8B5B8BAB
:1002E0006C8B7D8BC501B4016072772788279927B5
:1002F0006E8B7F8B888F998FD701C601807199276C
:10030000AA27BB278A8F9B8FAC8FBD8FA501940135
:1003100020713327442755272E8F3F8F48A359A399
:10032000B701A60148705527662777274AA35BA324
:100330006CA37DA3C501B40168707727882799272E
:100340006EA37FA388A799A7D701C60184709927B8
:10035000AA27BB2788AF99AFAAAFBBAF950184018D
:100360000470112722273327B701A60142705527B1
:10037000662777274AA75BA76CA77DA7A89590E07B
:1003800080E0B501A40142705527662777274EA764
:100390005FA768AB79AB2601370151E045225524B0
:1003A00066247724B501A401417055276627772775
:1003B0004AAB5BAB6CAB7DAB88309105F0F4FC01D4
:1003C000EC51FE4F0C94E302EC0129023E02500274
:1003D00065027A028F02A40241145104610471047F
:1003E00011F0419A28984AA95BA96CA97DA9452BCF
:1003F000462B472B11F0419A2B98A7EBBBE01197A6
:10040000F1F700C000005E9A289A2B9A2D9A409A24
:100410005F9A2A9A2C9A5B985D985C9829985A98CA
:1004200043984298419801968031910509F0C4CFD4
:100430004EA95FA9415051095FAB4EAB452B09F066
:100440009DCFBE016F5F7F4FC1010E9440001C0124
:10045000E6CE4AA55BA56CA57DA5452B462B472B73
:1004600011F0419A5F984EA55FA568A979A9452B1F
:10047000462B472B11F2419A4098BFCF48AD59AD5A
:100480006AAD7BAD452B462B472B11F0429A28983D
:10049000011511052105310509F4AFCF429AACCF02
:1004A0004AA15BA16CA17DA1452B462B472B11F0E6
:1004B000429A5F984EA15FA168A579A5452B462B6E
:1004C000472B09F49ACF429AD7CF4A8D5B8D6C8D1A
:1004D0007D8D452B462B472B11F0439A28984E8D46
:1004E0005F8D68A179A1452B462B472B09F485CF59
:1004F000439A82CF4A895B896C897D89452B462B3B
:10050000472B11F0439A5F984E895F89688D798DEA
:10051000452B462B472B09F470CF439AADCF4A8524
:100520005B856C857D85452B462B472B11F05A9AB0
:1005300028984E855F8568897989452B462B472BFE
:1005400009F45BCF5A9A58CF4A815B816C817D81D7
:10055000452B462B472B11F05A9A5F984E815F81AD
:1005600068857985452B462B472B09F446CF5A9A47
:1005700083CFF999FECF92BD81BDF89A992780B5B6
:100580000895262FF999FECF1FBA92BD81BD20BDD7
:100590000FB6F894FA9AF99A0FBE01960895AA1B1D
:1005A000BB1B51E107C0AA1FBB1FA617B70710F05E
:1005B000A61BB70B881F991F5A95A9F78095909590
:1005C000BC01CD010895EE0FFF1F0590F491E02DC1
:0605D0000994F894FFCF2E
:00000001FF
