:100000000C9452000C946F000C946F000C946F00D1
:100010000C946F000C946F000C946F000C946F00A4
:100020000C946F000C946F000C946F000C946F0094
:100030000C946F000C946F000C946F000C946F0084
:100040000C946F000C946F000C946F000C946F0074
:100050000C946F000C946F000C946F000C946F0064
:100060000C946F000C946F004E414E494E49545908
:10007000494E46CDCCCC3D0AD7233C17B7D1387773
:10008000CC2B329595E6241FB14F0A000020410089
:1000900000C84200401C4620BCBE4CCA1B0E5AAED3
:1000A000C59D740011241FBECFEFD4E0DEBFCDBFCD
:1000B00021E0A6E8B1E001C01D92A838B207E1F73F
:1000C00011E0A0E0B1E0E2EDFFE002C005900D928A
:1000D000A638B107D9F70E94D9010C94E7070C9410
:1000E00000009091C00095FFFCCF8093C60008955A
:1000F0008F929F92AF92BF92CF92DF92EF92FF9238
:100100000F931F93CF93DF93CDB7DEB72C970FB626
:10011000F894DEBF0FBECDBF9E012F5F3F4F790128
:10012000690110E000E02AE0822E912CA12CB12C74
:100130000F5F1F4FA50194010E94A007605DF601AB
:1001400061936F01B901CA01161617061806190640
:100150007CF30E0D1F1DF8011082F80182918F01B2
:100160000E9471000E151F05C1F780E22C960FB694
:10017000F894DEBF0FBECDBFDF91CF911F910F91DD
:10018000FF90EF90DF90CF90BF90AF909F908F90B7
:100190000C9471000F931F93CF93DF93EC018C01AC
:1001A00008531F4F8991882329F00E947100C017BE
:1001B000D107C1F7DF91CF911F910F91089530E0E2
:1001C00020E04091C00047FD0BC02F5F3F4FA89536
:1001D00021344FE13407ACF3019789F780E00895AB
:1001E00081E008950F931F93CF93DF9330E020E0D9
:1001F000DC0150E040E05B985D985C9829985A9843
:100200004398429841985E9A289A2B9A2D9A409A40
:100210005F9A2A9A2C9A2C9ACD91D0E0C7FF02C0FF
:10022000CF77D1E0BA016F5F7F4FFA013197E730A6
:10023000F10558F4E25EFE4F0C94BF073C013E010D
:1002400040014201440146014801299AE0EDEC0FCA
:10025000EA3008F053C00E2E000CFF0BEE5CFE4F90
:100260000C94BF078C014A018F0169016C016F0179
:100270007201750178017B015C9AE8CF5D9AE6CF47
:100280005B9AE4CF419AE2CF429AE0CF439ADECF25
:100290005A9ADCCF25E131E0E7ECF0E03197F1F755
:1002A00000C000008901F80141918F01EFE9E40FDE
:1002B000E73008F045C00E2E000CFF0BEE59FE4F44
:1002C0000C94BF0792019401960198019A019C0138
:1002D0009E012EE131E0E0CF24E231E0DDCF29E2E2
:1002E00031E0DACF2FE231E0D7CF25E331E0D4CFD0
:1002F00020E031E0D1CF28E031E0CECFC111CCCF2A
:10030000EFEBF2E13197F1F700C000004F5F5F4F74
:1003100048305105A9F723C02EE031E0BDCF28E1D8
:1003200031E0BACF5E98BFCF2898BDCF2B98BBCF16
:100330002D98B9CF4098B7CF5F98B5CF2A98B3CF53
:100340004111B1CFD1112C98E7EFF1E13197F1F7DD
:1003500000C00000AB016830710509F04CCF40913E
:10036000C00047FF45CFDF91CF911F910F910895B6
:10037000CF93DF93FC0101900020E9F73197E81B50
:10038000F90B9F0121503109E80FF91FDC01AD0184
:10039000481B590B421753074CF44D915291ED01F4
:1003A00021975883408321503109F1CFDF91CF91BC
:1003B0000895CF93DF93CDB7DEB766970FB6F89465
:1003C000DEBF0FBECDBF84B7A89584B7877F84BF3B
:1003D000809160008861809360001092600080913D
:1003E0007C00806480937C008EEF91E00E94C706C1
:1003F000182F80EF810F803E40F48FEF91E00E9434
:10040000C706181302C0109366008FE384B98FE00B
:1004100087B98CEF8AB95E9A289A2B9A2D9A409ABE
:100420005F9A2A9A2C9A1092C1001092C50080E11E
:100430008093C40082E08093C00088E18093C10073
:1004400086E08093C20085E090E022EB35E026BD97
:1004500035BDA89BFECFA89A15BCA8950197B9F702
:1004600004B600FE21C089E391E00E94CA0082E345
:1004700090E00E94DF008823B1F38091C6008F7D59
:10048000823589F780E491E00E94CA0060E08AEF3B
:1004900091E00E94CF0614BE5E9A289A2B9A2D9A5C
:1004A000409A5F9A2A9A2C9A8AEF91E00E94C70696
:1004B00081111AC06FEF8AEF91E00E94CF0683E4AA
:1004C00091E00E94CA00CE0101967C018E01035F7B
:1004D0001F4FFC011192E017F107E1F78091C00076
:1004E00087FD05C0A895FACF87E591E0EACF809116
:1004F000C60090ED980F9A3020F08D3211F08E32B8
:1005000069F789838E3211F480EB8983C7010E94D9
:10051000F20088E090E00E94DF008823D1F3809110
:10052000C6008D3011F08A3009F581E090E00E941C
:10053000DF0081118091C600C7010E94B801F70158
:1005400090E080E0DF01219127FF40C08E5F2F7790
:100550002C93FE013C9690E09F012E193F0928172D
:1005600039070CF47EC022912183F6CF90ED980FCD
:100570009A30A8F08E3239F1883099F08D3249F6F0
:100580009F8198879E819F839D819E839C819D836F
:100590009B819C839A819B8399819A83B6CF883073
:1005A00081F48A8189838B818A838C818B838D817D
:1005B0008C838E818D838F818E8388858F8318862F
:1005C000A5CF8E32E9F6898180689FCF01968C3065
:1005D000910509F0B7CF80E491E00E94CA00C701FD
:1005E0000E94CA008FE591E00E94CA00C7010E94E4
:1005F000EA0323E333E34BE250E40E942E072B018E
:100600003C01E89467F87724689467F827E19595AA
:100610008795779567952A95D1F76F57710987E187
:1006200090E04C01861A970AB12CA12CC12CD12C38
:100630007601C394A814B904FCF4C114D104E104F4
:10064000F0E4FF06A4F0C301B20122E030E040E094
:1006500050E00E94A00729013A018FEFA81AB80ABA
:10066000E9CF8C0F9D1F2EE2FC012083B4CFCC0C70
:10067000DD1CEE1CFF1CF1CFC301B2010E9478000B
:1006800089E791E00E94CA00C701B6010E94780084
:1006900080E791E00E94CA00C301B201A701960160
:1006A0000E94A00749015A012B013C012AE0A80140
:1006B000C501B4010E94EE03F80101900020E9F7A2
:1006C00031971F01201A310A51019FEFA91AB90A67
:1006D000F801E20DF31D8EE2808348018A0C9B1C19
:1006E000E8E02E0E311CFCEC4F165F066F06FCE0B6
:1006F0007F06A8F0C301B2012AE030E040E050E0FC
:100700000E94A00729013A01C701B6012AE030E0A2
:1007100040E050E00E94A00769017A01E4CFAAE01E
:10072000B0E0A30192010E94DD06A70196010E949C
:10073000A0072B013C018FEFA81AB80A205DF40135
:1007400021934F01F9E0AF16B10419F0A214B304DC
:1007500051F6F801EA0DFB1D108278016801F601DF
:1007600081916F01882319F00E947100F8CF9801E0
:10077000275F3F4FF70191917F01992371F0882303
:1007800031F18F5F9E32F1F4F701329780818068FA
:10079000808381E02E153F0569F71D8AC8010E94FC
:1007A000B801C8010E94F200C8010E94F20088E16D
:1007B00099E00FB6F894A895809360000FBE9093CF
:1007C0006000FFCF823034F332979083E3CF9E32C4
:1007D000D9F2E0CF662777270C941F04BB272A3075
:1007E00051F4992342F4BDE29095809570956195FE
:1007F0007F4F8F4F9F4F0C94FE03BB27FA01A62F0C
:100800006217710581059105330B30FB66F0AA274D
:10081000660F771F881F991FAA1FA21710F0A21B2F
:1008200063953850A9F7A05DAA3308F0A95DA1939C
:1008300036F7B111B1931082CA010C949005B0E063
:10084000A0E0E5E2F4E00C94EE065C017B016115AA
:10085000710519F0DB018D939C9385010F5F1F4F8C
:10086000F501D0818D2F90E00E946F056C01892BDE
:10087000B9F5DD32B9F50F5F1F4FD5011196DC9147
:10088000C1E05801F1E0AF1AB10843E050E060E781
:1008900070E0C5010E947805892B69F5680182E046
:1008A000C80ED11C45E050E06BE670E0C6010E9426
:1008B0007805892B21F4680197E0C90ED11CE11459
:1008C000F10419F0D701CD92DC9260E070E080E88D
:1008D0009FEFC111FFC060E070E080E89FE7FAC0C1
:1008E0005801BBCFDB3229F485010E5F1F4FF501A4
:1008F000D181C0E0C6CF43E050E068E670E0C501BA
:100900000E947805892BE9F0F80110E000E020E072
:1009100030E0A9015F01B0ED8B2E8D0E89E08815C6
:10092000C8F19C2E689491F88C2F8870C2FF16C075
:10093000811102C00F5F1F4F3196D501DC91C92D87
:10094000E9CFE114F10429F00E5F1F4FF701118385
:10095000008360E070E080EC9FE7BCC0882311F06A
:1009600001501109A5E0B0E00E94DD069B01AC0139
:10097000220F331F441F551F280D311D411D511DCE
:10098000283999E93907490799E15907A8F2C6605A
:100990009C2ED2CFAEEF8A1206C0C3FD3CC09C2E67
:1009A000689493F8C9CFDF7DD534A9F580818D3265
:1009B00039F4C061DF011296818162E070E006C007
:1009C000DF018B32C1F3119661E070E080535D016D
:1009D000A61AB70A8A30F8F4E0E8CE16ECE0DE0694
:1009E0005CF4B601660F771F660F771FC60ED71E21
:1009F000CC0CDD1CC80ED11C5D01FFEFAF1ABF0A85
:100A00008C9180538A30A8F1C4FF03C0D194C19463
:100A1000D1080C0D1D1DC1FF09C0E114F10431F016
:100A200081E0A81AB108D701AD92BC92CA01B90100
:100A30000E94A505C370C33009F490584B015C01B6
:100A400020E030E0A9010E94A005882309F440C0FD
:100A5000CFE9D0E017FF05C0119501951109C7E84E
:100A6000D0E06E01B8E1CB1AD10880E2E82EF12C7B
:100A70000FC0D501B1CFFE0125913591459154911B
:100A80000E191F09C501B4010E9406064B015C0145
:100A9000D501C4010E151F0574F72497F594E7944A
:100AA000CC16DD06A9F78A2F880F8B2F881F8F3F62
:100AB00049F020E030E0A901C501B4010E94A00581
:100AC000811106C082E290E09093870180938601B5
:100AD000C501B401CDB7DEB7ECE00C940A07911163
:100AE0000C947306803219F089508550C8F7089528
:100AF000FB01DC014150504088F08D9181341CF0A5
:100B00008B350CF4805E659161341CF06B350CF410
:100B1000605E861B611171F3990B0895881BFCCFF1
:100B2000DC01FC01672F71917723E1F7329704C054
:100B30007C916D9370836291AE17BF07C8F30895DF
:100B40000E94E20508F481E00895E89409C097FB4B
:100B50003EF490958095709561957F4F8F4F9F4F94
:100B60009923A9F0F92F96E9BB279395F6958795D8
:100B700077956795B795F111F8CFFAF4BB0F11F49B
:100B800060FF1BC06F5F7F4F8F4F9F4F16C0882342
:100B900011F096E911C0772321F09EE8872F762F78
:100BA00005C0662371F096E8862F70E060E02AF0B9
:100BB0009A95660F771F881FDAF7880F96958795A5
:100BC00097F90895990F0008550FAA0BE0E8FEEF7A
:100BD00016161706E807F907C0F012161306E40701
:100BE000F50798F0621B730B840B950B39F40A26FA
:100BF00061F0232B242B252B21F408950A2609F4D8
:100C0000A140A6958FEF811D811D08950E941906B0
:100C10000C948D060E947F0638F00E94860620F014
:100C2000952311F00C9476060C947C0611240C94F8
:100C3000C1060E949E0670F3959FC1F3950F50E088
:100C4000551F629FF001729FBB27F00DB11D639F7E
:100C5000AA27F00DB11DAA1F649F6627B00DA11D24
:100C6000661F829F2227B00DA11D621F739FB00DCA
:100C7000A11D621F839FA00D611D221F749F33273A
:100C8000A00D611D231F849F600D211D822F762FD3
:100C90006A2F11249F5750409AF0F1F088234AF0B0
:100CA000EE0FFF1FBB1F661F771F881F915050401C
:100CB000A9F79E3F510580F00C9476060C94C1066E
:100CC0005F3FE4F3983ED4F3869577956795B795A3
:100CD000F795E7959F5FC1F7FE2B880F911D9695BD
:100CE000879597F9089599278827089597F99F6719
:100CF00080E870E060E008959FEF80EC08950024A4
:100D00000A941616170618060906089500240A9470
:100D100012161306140605060895092E0394000CF6
:100D200011F4882352F0BB0F40F4BF2B11F460FF85
:100D300004C06F5F7F4F8F4F9F4F089557FD9058AE
:100D4000440F551F59F05F3F71F04795880F97FB8F
:100D5000991F61F09F3F79F0879508951216130649
:100D60001406551FF2CF4695F1DF08C01616170678
:100D70001806991FF1CF86957105610508940895AD
:100D8000E894BB2766277727CB0197F90895F9994F
:100D9000FECF92BD81BDF89A992780B50895262F80
:100DA000F999FECF1FBA92BD81BD20BD0FB6F89450
:100DB000FA9AF99A0FBE019608950E941F07A59FFF
:100DC000900DB49F900DA49F800D911D1124089546
:100DD0002F923F924F925F926F927F928F929F924B
:100DE000AF92BF92CF92DF92EF92FF920F931F9339
:100DF000CF93DF93CDB7DEB7CA1BDB0B0FB6F894EA
:100E0000DEBF0FBECDBF09942A88398848885F8429
:100E10006E847D848C849B84AA84B984C884DF809A
:100E2000EE80FD800C811B81AA81B981CE0FD11D7E
:100E30000FB6F894DEBF0FBECDBFED010895A29F9F
:100E4000B001B39FC001A39F700D811D1124911D9E
:100E5000B29F700D811D1124911D08950E944207BB
:100E60000C948D060E94860658F00E947F0640F082
:100E700029F45F3F29F00C94760651110C94C106B9
:100E80000C947C060E949E0668F39923B1F35523C7
:100E900091F3951B550BBB27AA276217730784078D
:100EA00038F09F5F5F4F220F331F441FAA1FA9F323
:100EB00035D00E2E3AF0E0E832D091505040E69511
:100EC000001CCAF72BD0FE2F29D0660F771F881F72
:100ED000BB1F261737074807AB07B0E809F0BB0B65
:100EE000802DBF01FF2793585F4F3AF09E3F510579
:100EF00078F00C9476060C94C1065F3FE4F3983EBC
:100F0000D4F3869577956795B795F7959F5FC9F761
:100F1000880F911D9695879597F90895E1E0660FE2
:100F2000771F881FBB1F621773078407BA0720F05B
:100F3000621B730B840BBA0BEE1F88F7E0950895C4
:100F4000052E97FB1EF400940E94B70757FD07D0AB
:100F50000E94C50707FC03D04EF40C94B7075095C8
:100F60004095309521953F4F4F4F5F4F0895909595
:100F70008095709561957F4F8F4F9F4F0895EE0F2D
:100F8000FF1F0590F491E02D0994A1E21A2EAA1BEF
:100F9000BB1BFD010DC0AA1FBB1FEE1FFF1FA21729
:100FA000B307E407F50720F0A21BB30BE40BF50B26
:100FB000661F771F881F991F1A9469F760957095AF
:100FC000809590959B01AC01BD01CF010895F894E7
:020FD000FFCF51
:100FD200616263646566670067616263660061629D
:100FE20063646566006263006162646567006162F2
:100FF20063646700626366670061636466670067D3
:10100200636465660062636100523F202020200015
:101012000D0A000D0A53656E64207265616C206EC4
:10102200756D6265723F000D0A416761696E00204D
:101032006469766964656420627920322E363735B8
:1010420020657175616C73200064697669646564FA
:061052002062792000007D
:00000001FF
